{
  "_format": "hh-sol-artifact-1",
  "contractName": "EpicNFT",
  "sourceName": "contracts/EpicNFT.sol",
  "abi": [
    {
      "inputs": [],
      "stateMutability": "nonpayable",
      "type": "constructor"
    },
    {
      "anonymous": false,
      "inputs": [
        {
          "indexed": true,
          "internalType": "address",
          "name": "owner",
          "type": "address"
        },
        {
          "indexed": true,
          "internalType": "address",
          "name": "approved",
          "type": "address"
        },
        {
          "indexed": true,
          "internalType": "uint256",
          "name": "tokenId",
          "type": "uint256"
        }
      ],
      "name": "Approval",
      "type": "event"
    },
    {
      "anonymous": false,
      "inputs": [
        {
          "indexed": true,
          "internalType": "address",
          "name": "owner",
          "type": "address"
        },
        {
          "indexed": true,
          "internalType": "address",
          "name": "operator",
          "type": "address"
        },
        {
          "indexed": false,
          "internalType": "bool",
          "name": "approved",
          "type": "bool"
        }
      ],
      "name": "ApprovalForAll",
      "type": "event"
    },
    {
      "anonymous": false,
      "inputs": [
        {
          "indexed": true,
          "internalType": "address",
          "name": "from",
          "type": "address"
        },
        {
          "indexed": true,
          "internalType": "address",
          "name": "to",
          "type": "address"
        },
        {
          "indexed": true,
          "internalType": "uint256",
          "name": "tokenId",
          "type": "uint256"
        }
      ],
      "name": "Transfer",
      "type": "event"
    },
    {
      "inputs": [
        {
          "internalType": "address",
          "name": "to",
          "type": "address"
        },
        {
          "internalType": "uint256",
          "name": "tokenId",
          "type": "uint256"
        }
      ],
      "name": "approve",
      "outputs": [],
      "stateMutability": "nonpayable",
      "type": "function"
    },
    {
      "inputs": [
        {
          "internalType": "address",
          "name": "owner",
          "type": "address"
        }
      ],
      "name": "balanceOf",
      "outputs": [
        {
          "internalType": "uint256",
          "name": "",
          "type": "uint256"
        }
      ],
      "stateMutability": "view",
      "type": "function"
    },
    {
      "inputs": [
        {
          "internalType": "uint256",
          "name": "tokenId",
          "type": "uint256"
        }
      ],
      "name": "getApproved",
      "outputs": [
        {
          "internalType": "address",
          "name": "",
          "type": "address"
        }
      ],
      "stateMutability": "view",
      "type": "function"
    },
    {
      "inputs": [
        {
          "internalType": "address",
          "name": "owner",
          "type": "address"
        },
        {
          "internalType": "address",
          "name": "operator",
          "type": "address"
        }
      ],
      "name": "isApprovedForAll",
      "outputs": [
        {
          "internalType": "bool",
          "name": "",
          "type": "bool"
        }
      ],
      "stateMutability": "view",
      "type": "function"
    },
    {
      "inputs": [],
      "name": "makeEpicNFT",
      "outputs": [],
      "stateMutability": "nonpayable",
      "type": "function"
    },
    {
      "inputs": [],
      "name": "name",
      "outputs": [
        {
          "internalType": "string",
          "name": "",
          "type": "string"
        }
      ],
      "stateMutability": "view",
      "type": "function"
    },
    {
      "inputs": [
        {
          "internalType": "uint256",
          "name": "tokenId",
          "type": "uint256"
        }
      ],
      "name": "ownerOf",
      "outputs": [
        {
          "internalType": "address",
          "name": "",
          "type": "address"
        }
      ],
      "stateMutability": "view",
      "type": "function"
    },
    {
      "inputs": [
        {
          "internalType": "uint256",
          "name": "tokenId",
          "type": "uint256"
        }
      ],
      "name": "pickRandomFirstWord",
      "outputs": [
        {
          "internalType": "string",
          "name": "",
          "type": "string"
        }
      ],
      "stateMutability": "view",
      "type": "function"
    },
    {
      "inputs": [
        {
          "internalType": "uint256",
          "name": "tokenId",
          "type": "uint256"
        }
      ],
      "name": "pickRandomSecondWord",
      "outputs": [
        {
          "internalType": "string",
          "name": "",
          "type": "string"
        }
      ],
      "stateMutability": "view",
      "type": "function"
    },
    {
      "inputs": [
        {
          "internalType": "uint256",
          "name": "tokenId",
          "type": "uint256"
        }
      ],
      "name": "pickRandomThirdWord",
      "outputs": [
        {
          "internalType": "string",
          "name": "",
          "type": "string"
        }
      ],
      "stateMutability": "view",
      "type": "function"
    },
    {
      "inputs": [
        {
          "internalType": "address",
          "name": "from",
          "type": "address"
        },
        {
          "internalType": "address",
          "name": "to",
          "type": "address"
        },
        {
          "internalType": "uint256",
          "name": "tokenId",
          "type": "uint256"
        }
      ],
      "name": "safeTransferFrom",
      "outputs": [],
      "stateMutability": "nonpayable",
      "type": "function"
    },
    {
      "inputs": [
        {
          "internalType": "address",
          "name": "from",
          "type": "address"
        },
        {
          "internalType": "address",
          "name": "to",
          "type": "address"
        },
        {
          "internalType": "uint256",
          "name": "tokenId",
          "type": "uint256"
        },
        {
          "internalType": "bytes",
          "name": "_data",
          "type": "bytes"
        }
      ],
      "name": "safeTransferFrom",
      "outputs": [],
      "stateMutability": "nonpayable",
      "type": "function"
    },
    {
      "inputs": [
        {
          "internalType": "address",
          "name": "operator",
          "type": "address"
        },
        {
          "internalType": "bool",
          "name": "approved",
          "type": "bool"
        }
      ],
      "name": "setApprovalForAll",
      "outputs": [],
      "stateMutability": "nonpayable",
      "type": "function"
    },
    {
      "inputs": [
        {
          "internalType": "bytes4",
          "name": "interfaceId",
          "type": "bytes4"
        }
      ],
      "name": "supportsInterface",
      "outputs": [
        {
          "internalType": "bool",
          "name": "",
          "type": "bool"
        }
      ],
      "stateMutability": "view",
      "type": "function"
    },
    {
      "inputs": [],
      "name": "symbol",
      "outputs": [
        {
          "internalType": "string",
          "name": "",
          "type": "string"
        }
      ],
      "stateMutability": "view",
      "type": "function"
    },
    {
      "inputs": [
        {
          "internalType": "uint256",
          "name": "tokenId",
          "type": "uint256"
        }
      ],
      "name": "tokenURI",
      "outputs": [
        {
          "internalType": "string",
          "name": "",
          "type": "string"
        }
      ],
      "stateMutability": "view",
      "type": "function"
    },
    {
      "inputs": [
        {
          "internalType": "address",
          "name": "from",
          "type": "address"
        },
        {
          "internalType": "address",
          "name": "to",
          "type": "address"
        },
        {
          "internalType": "uint256",
          "name": "tokenId",
          "type": "uint256"
        }
      ],
      "name": "transferFrom",
      "outputs": [],
      "stateMutability": "nonpayable",
      "type": "function"
    }
  ],
  "bytecode": "0x608060405260405180610160016040528061012f8152602001620042ef61012f913960089080519060200190620000389291906200067e565b506040518060c001604052806040518060400160405280600681526020017f537175697265000000000000000000000000000000000000000000000000000081525081526020016040518060400160405280600381526020017f536572000000000000000000000000000000000000000000000000000000000081525081526020016040518060400160405280600381526020017f536972000000000000000000000000000000000000000000000000000000000081525081526020016040518060400160405280600781526020017f5965726f6e65720000000000000000000000000000000000000000000000000081525081526020016040518060400160405280600681526020017f4d696c617264000000000000000000000000000000000000000000000000000081525081526020016040518060400160405280600681526020017f4d796c61776400000000000000000000000000000000000000000000000000008152508152506009906006620001b69291906200070f565b506040518060c001604052806040518060400160405280600481526020017f546f6d650000000000000000000000000000000000000000000000000000000081525081526020016040518060400160405280600781526020017f4d7574617469730000000000000000000000000000000000000000000000000081525081526020016040518060400160405280600881526020017f4d7574616e64697300000000000000000000000000000000000000000000000081525081526020016040518060400160405280600b81526020017f5375692d47656e6572697300000000000000000000000000000000000000000081525081526020016040518060400160405280600a81526020017f4970736f2d466163746f0000000000000000000000000000000000000000000081525081526020016040518060400160405280600f81526020017f436574657269732d506172696275730000000000000000000000000000000000815250815250600a906006620003349291906200070f565b506040518060c001604052806040518060400160405280600581526020017f476176656c00000000000000000000000000000000000000000000000000000081525081526020016040518060400160405280600381526020017f576967000000000000000000000000000000000000000000000000000000000081525081526020016040518060400160405280600481526020017f526f62650000000000000000000000000000000000000000000000000000000081525081526020016040518060400160405280600981526020017f54696d657368656574000000000000000000000000000000000000000000000081525081526020016040518060400160405280600681526020017f427269656673000000000000000000000000000000000000000000000000000081525081526020016040518060400160405280600681526020017f446f636b65740000000000000000000000000000000000000000000000000000815250815250600b906006620004b29291906200070f565b50348015620004c057600080fd5b506040518060400160405280600581526020017f7a704e46540000000000000000000000000000000000000000000000000000008152506040518060400160405280600681526020017f7a2d6e66747900000000000000000000000000000000000000000000000000008152508160009080519060200190620005459291906200067e565b5080600190805190602001906200055e9291906200067e565b505050620005ac6040518060400160405280601f81526020017f54686973206973206d79204e465420636f6e74726163742e204c6f7264792100815250620005b260201b620010c31760201c565b62000930565b6200065281604051602401620005c9919062000844565b6040516020818303038152906040527f41304fac000000000000000000000000000000000000000000000000000000007bffffffffffffffffffffffffffffffffffffffffffffffffffffffff19166020820180517bffffffffffffffffffffffffffffffffffffffffffffffffffffffff83818316178352505050506200065560201b60201c565b50565b60008151905060006a636f6e736f6c652e6c6f679050602083016000808483855afa5050505050565b8280546200068c90620008ba565b90600052602060002090601f016020900481019282620006b05760008555620006fc565b82601f10620006cb57805160ff1916838001178555620006fc565b82800160010185558215620006fc579182015b82811115620006fb578251825591602001919060010190620006de565b5b5090506200070b919062000776565b5090565b82805482825590600052602060002090810192821562000763579160200282015b8281111562000762578251829080519060200190620007519291906200067e565b509160200191906001019062000730565b5b50905062000772919062000795565b5090565b5b808211156200079157600081600090555060010162000777565b5090565b5b80821115620007b95760008181620007af9190620007bd565b5060010162000796565b5090565b508054620007cb90620008ba565b6000825580601f10620007df575062000800565b601f016020900490600052602060002090810190620007ff919062000776565b5b50565b6000620008108262000868565b6200081c818562000873565b93506200082e81856020860162000884565b62000839816200091f565b840191505092915050565b6000602082019050818103600083015262000860818462000803565b905092915050565b600081519050919050565b600082825260208201905092915050565b60005b83811015620008a457808201518184015260208101905062000887565b83811115620008b4576000848401525b50505050565b60006002820490506001821680620008d357607f821691505b60208210811415620008ea57620008e9620008f0565b5b50919050565b7f4e487b7100000000000000000000000000000000000000000000000000000000600052602260045260246000fd5b6000601f19601f8301169050919050565b6139af80620009406000396000f3fe608060405234801561001057600080fd5b506004361061010b5760003560e01c80636352211e116100a2578063b187301f11610071578063b187301f146102b6578063b88d4fde146102e6578063c575757a14610302578063c87b56dd14610332578063e985e9c5146103625761010b565b80636352211e1461021c57806370a082311461024c57806395d89b411461027c578063a22cb4651461029a5761010b565b806323b872dd116100de57806323b872dd146101aa5780632de38d68146101c657806342842e0e146101f657806362b41f49146102125761010b565b806301ffc9a71461011057806306fdde0314610140578063081812fc1461015e578063095ea7b31461018e575b600080fd5b61012a60048036038101906101259190612565565b610392565b6040516101379190613178565b60405180910390f35b610148610474565b6040516101559190613193565b60405180910390f35b610178600480360381019061017391906125b7565b610506565b6040516101859190613111565b60405180910390f35b6101a860048036038101906101a39190612529565b61058b565b005b6101c460048036038101906101bf9190612423565b6106a3565b005b6101e060048036038101906101db91906125b7565b610703565b6040516101ed9190613193565b60405180910390f35b610210600480360381019061020b9190612423565b610821565b005b61021a610841565b005b610236600480360381019061023191906125b7565b610a2d565b6040516102439190613111565b60405180910390f35b610266600480360381019061026191906123be565b610adf565b6040516102739190613454565b60405180910390f35b610284610b97565b6040516102919190613193565b60405180910390f35b6102b460048036038101906102af91906124ed565b610c29565b005b6102d060048036038101906102cb91906125b7565b610c3f565b6040516102dd9190613193565b60405180910390f35b61030060048036038101906102fb9190612472565b610d5d565b005b61031c600480360381019061031791906125b7565b610dbf565b6040516103299190613193565b60405180910390f35b61034c600480360381019061034791906125b7565b610edd565b6040516103599190613193565b60405180910390f35b61037c600480360381019061037791906123e7565b61102f565b6040516103899190613178565b60405180910390f35b60007f80ac58cd000000000000000000000000000000000000000000000000000000007bffffffffffffffffffffffffffffffffffffffffffffffffffffffff1916827bffffffffffffffffffffffffffffffffffffffffffffffffffffffff1916148061045d57507f5b5e139f000000000000000000000000000000000000000000000000000000007bffffffffffffffffffffffffffffffffffffffffffffffffffffffff1916827bffffffffffffffffffffffffffffffffffffffffffffffffffffffff1916145b8061046d575061046c8261115c565b5b9050919050565b606060008054610483906136f3565b80601f01602080910402602001604051908101604052809291908181526020018280546104af906136f3565b80156104fc5780601f106104d1576101008083540402835291602001916104fc565b820191906000526020600020905b8154815290600101906020018083116104df57829003601f168201915b5050505050905090565b6000610511826111c6565b610550576040517f08c379a0000000000000000000000000000000000000000000000000000000008152600401610547906133b4565b60405180910390fd5b6004600083815260200190815260200160002060009054906101000a900473ffffffffffffffffffffffffffffffffffffffff169050919050565b600061059682610a2d565b90508073ffffffffffffffffffffffffffffffffffffffff168373ffffffffffffffffffffffffffffffffffffffff161415610607576040517f08c379a00000000000000000000000000000000000000000000000000000000081526004016105fe90613414565b60405180910390fd5b8073ffffffffffffffffffffffffffffffffffffffff16610626611232565b73ffffffffffffffffffffffffffffffffffffffff16148061065557506106548161064f611232565b61102f565b5b610694576040517f08c379a000000000000000000000000000000000000000000000000000000000815260040161068b906132f4565b60405180910390fd5b61069e838361123a565b505050565b6106b46106ae611232565b826112f3565b6106f3576040517f08c379a00000000000000000000000000000000000000000000000000000000081526004016106ea90613434565b60405180910390fd5b6106fe8383836113d1565b505050565b606060006107376107138461162d565b60405160200161072391906130cd565b6040516020818303038152906040526117da565b90506009805490508161074a919061376e565b905060098181548110610786577f4e487b7100000000000000000000000000000000000000000000000000000000600052603260045260246000fd5b90600052602060002001805461079b906136f3565b80601f01602080910402602001604051908101604052809291908181526020018280546107c7906136f3565b80156108145780601f106107e957610100808354040283529160200191610814565b820191906000526020600020905b8154815290600101906020018083116107f757829003601f168201915b5050505050915050919050565b61083c83838360405180602001604052806000815250610d5d565b505050565b600061084d600761180d565b9050600061085a82610703565b9050600061086783610c3f565b9050600061087484610dbf565b9050600083838360405160200161088d93929190612fca565b6040516020818303038152906040529050600060088585856040516020016108b89493929190612ffb565b604051602081830303815290604052905060006108fd836108d88461181b565b6040516020016108e9929190613088565b60405160208183030381529060405261181b565b905061090933886119d9565b60008160405160200161091c91906130ef565b604051602081830303815290604052905061096b6040518060400160405280601581526020017f0a2d2d2d2d2d2d2d2d2d2d2d2d2d2d2d2d2d2d2d2d00000000000000000000008152506110c3565b610974816110c3565b6109b26040518060400160405280601581526020017f2d2d2d2d2d2d2d2d2d2d2d2d2d2d2d2d2d2d2d2d0a00000000000000000000008152506110c3565b6109bc88826119f7565b6109df6040518060600160405280602e815260200161394c602e91398933611a6b565b6109e96007611b0a565b610a236040518060800160405280604381526020016138c960439139610a0d610474565b610a15610b97565b610a1e8c610edd565b611b20565b5050505050505050565b6000806002600084815260200190815260200160002060009054906101000a900473ffffffffffffffffffffffffffffffffffffffff169050600073ffffffffffffffffffffffffffffffffffffffff168173ffffffffffffffffffffffffffffffffffffffff161415610ad6576040517f08c379a0000000000000000000000000000000000000000000000000000000008152600401610acd90613334565b60405180910390fd5b80915050919050565b60008073ffffffffffffffffffffffffffffffffffffffff168273ffffffffffffffffffffffffffffffffffffffff161415610b50576040517f08c379a0000000000000000000000000000000000000000000000000000000008152600401610b4790613314565b60405180910390fd5b600360008373ffffffffffffffffffffffffffffffffffffffff1673ffffffffffffffffffffffffffffffffffffffff168152602001908152602001600020549050919050565b606060018054610ba6906136f3565b80601f0160208091040260200160405190810160405280929190818152602001828054610bd2906136f3565b8015610c1f5780601f10610bf457610100808354040283529160200191610c1f565b820191906000526020600020905b815481529060010190602001808311610c0257829003601f168201915b5050505050905090565b610c3b610c34611232565b8383611bc2565b5050565b60606000610c73610c4f8461162d565b604051602001610c5f9190613066565b6040516020818303038152906040526117da565b9050600a8054905081610c86919061376e565b9050600a8181548110610cc2577f4e487b7100000000000000000000000000000000000000000000000000000000600052603260045260246000fd5b906000526020600020018054610cd7906136f3565b80601f0160208091040260200160405190810160405280929190818152602001828054610d03906136f3565b8015610d505780601f10610d2557610100808354040283529160200191610d50565b820191906000526020600020905b815481529060010190602001808311610d3357829003601f168201915b5050505050915050919050565b610d6e610d68611232565b836112f3565b610dad576040517f08c379a0000000000000000000000000000000000000000000000000000000008152600401610da490613434565b60405180910390fd5b610db984848484611d2f565b50505050565b60606000610df3610dcf8461162d565b604051602001610ddf9190613044565b6040516020818303038152906040526117da565b9050600b8054905081610e06919061376e565b9050600b8181548110610e42577f4e487b7100000000000000000000000000000000000000000000000000000000600052603260045260246000fd5b906000526020600020018054610e57906136f3565b80601f0160208091040260200160405190810160405280929190818152602001828054610e83906136f3565b8015610ed05780601f10610ea557610100808354040283529160200191610ed0565b820191906000526020600020905b815481529060010190602001808311610eb357829003601f168201915b5050505050915050919050565b6060610ee8826111c6565b610f27576040517f08c379a0000000000000000000000000000000000000000000000000000000008152600401610f1e90613394565b60405180910390fd5b6000600660008481526020019081526020016000208054610f47906136f3565b80601f0160208091040260200160405190810160405280929190818152602001828054610f73906136f3565b8015610fc05780601f10610f9557610100808354040283529160200191610fc0565b820191906000526020600020905b815481529060010190602001808311610fa357829003601f168201915b505050505090506000610fd1611d8b565b9050600081511415610fe757819250505061102a565b60008251111561101c578082604051602001611004929190612fa6565b6040516020818303038152906040529250505061102a565b61102584611da2565b925050505b919050565b6000600560008473ffffffffffffffffffffffffffffffffffffffff1673ffffffffffffffffffffffffffffffffffffffff16815260200190815260200160002060008373ffffffffffffffffffffffffffffffffffffffff1673ffffffffffffffffffffffffffffffffffffffff16815260200190815260200160002060009054906101000a900460ff16905092915050565b611159816040516024016110d79190613193565b6040516020818303038152906040527f41304fac000000000000000000000000000000000000000000000000000000007bffffffffffffffffffffffffffffffffffffffffffffffffffffffff19166020820180517bffffffffffffffffffffffffffffffffffffffffffffffffffffffff8381831617835250505050611e49565b50565b60007f01ffc9a7000000000000000000000000000000000000000000000000000000007bffffffffffffffffffffffffffffffffffffffffffffffffffffffff1916827bffffffffffffffffffffffffffffffffffffffffffffffffffffffff1916149050919050565b60008073ffffffffffffffffffffffffffffffffffffffff166002600084815260200190815260200160002060009054906101000a900473ffffffffffffffffffffffffffffffffffffffff1673ffffffffffffffffffffffffffffffffffffffff1614159050919050565b600033905090565b816004600083815260200190815260200160002060006101000a81548173ffffffffffffffffffffffffffffffffffffffff021916908373ffffffffffffffffffffffffffffffffffffffff160217905550808273ffffffffffffffffffffffffffffffffffffffff166112ad83610a2d565b73ffffffffffffffffffffffffffffffffffffffff167f8c5be1e5ebec7d5bd14f71427d1e84f3dd0314c0f7b2291e5b200ac8c7c3b92560405160405180910390a45050565b60006112fe826111c6565b61133d576040517f08c379a0000000000000000000000000000000000000000000000000000000008152600401611334906132d4565b60405180910390fd5b600061134883610a2d565b90508073ffffffffffffffffffffffffffffffffffffffff168473ffffffffffffffffffffffffffffffffffffffff1614806113b757508373ffffffffffffffffffffffffffffffffffffffff1661139f84610506565b73ffffffffffffffffffffffffffffffffffffffff16145b806113c857506113c7818561102f565b5b91505092915050565b8273ffffffffffffffffffffffffffffffffffffffff166113f182610a2d565b73ffffffffffffffffffffffffffffffffffffffff1614611447576040517f08c379a000000000000000000000000000000000000000000000000000000000815260040161143e906133d4565b60405180910390fd5b600073ffffffffffffffffffffffffffffffffffffffff168273ffffffffffffffffffffffffffffffffffffffff1614156114b7576040517f08c379a00000000000000000000000000000000000000000000000000000000081526004016114ae90613294565b60405180910390fd5b6114c2838383611e72565b6114cd60008261123a565b6001600360008573ffffffffffffffffffffffffffffffffffffffff1673ffffffffffffffffffffffffffffffffffffffff168152602001908152602001600020600082825461151d9190613609565b925050819055506001600360008473ffffffffffffffffffffffffffffffffffffffff1673ffffffffffffffffffffffffffffffffffffffff16815260200190815260200160002060008282546115749190613528565b92505081905550816002600083815260200190815260200160002060006101000a81548173ffffffffffffffffffffffffffffffffffffffff021916908373ffffffffffffffffffffffffffffffffffffffff160217905550808273ffffffffffffffffffffffffffffffffffffffff168473ffffffffffffffffffffffffffffffffffffffff167fddf252ad1be2c89b69c2b068fc378daa952ba7f163c4a11628f55a4df523b3ef60405160405180910390a4505050565b60606000821415611675576040518060400160405280600181526020017f300000000000000000000000000000000000000000000000000000000000000081525090506117d5565b600082905060005b600082146116a757808061169090613725565b915050600a826116a0919061357e565b915061167d565b60008167ffffffffffffffff8111156116e9577f4e487b7100000000000000000000000000000000000000000000000000000000600052604160045260246000fd5b6040519080825280601f01601f19166020018201604052801561171b5781602001600182028036833780820191505090505b5090505b600085146117ce576001826117349190613609565b9150600a85611743919061376e565b603061174f9190613528565b60f81b81838151811061178b577f4e487b7100000000000000000000000000000000000000000000000000000000600052603260045260246000fd5b60200101907effffffffffffffffffffffffffffffffffffffffffffffffffffffffffffff1916908160001a905350600a856117c7919061357e565b945061171f565b8093505050505b919050565b6000816040516020016117ed9190612f8f565b6040516020818303038152906040528051906020012060001c9050919050565b600081600001549050919050565b6060600082519050600081141561184457604051806020016040528060008152509150506119d4565b600060036002836118559190613528565b61185f919061357e565b600461186b91906135af565b9050600060208261187c9190613528565b67ffffffffffffffff8111156118bb577f4e487b7100000000000000000000000000000000000000000000000000000000600052604160045260246000fd5b6040519080825280601f01601f1916602001820160405280156118ed5781602001600182028036833780820191505090505b509050600060405180606001604052806040815260200161390c604091399050600181016020830160005b868110156119915760038101905062ffffff818a015116603f8160121c168401518060081b905060ff603f83600c1c1686015116810190508060081b905060ff603f8360061c1686015116810190508060081b905060ff603f831686015116810190508060e01b90508084526004840193505050611918565b5060038606600181146119ab57600281146119bb576119c6565b613d3d60f01b60028303526119c6565b603d60f81b60018303525b508484525050819450505050505b919050565b6119f3828260405180602001604052806000815250611e77565b5050565b611a00826111c6565b611a3f576040517f08c379a0000000000000000000000000000000000000000000000000000000008152600401611a3690613354565b60405180910390fd5b80600660008481526020019081526020016000209080519060200190611a6692919061224a565b505050565b611b05838383604051602401611a8393929190613216565b6040516020818303038152906040527fe3849f79000000000000000000000000000000000000000000000000000000007bffffffffffffffffffffffffffffffffffffffffffffffffffffffff19166020820180517bffffffffffffffffffffffffffffffffffffffffffffffffffffffff8381831617835250505050611e49565b505050565b6001816000016000828254019250508190555050565b611bbc84848484604051602401611b3a94939291906131b5565b6040516020818303038152906040527fde68f20a000000000000000000000000000000000000000000000000000000007bffffffffffffffffffffffffffffffffffffffffffffffffffffffff19166020820180517bffffffffffffffffffffffffffffffffffffffffffffffffffffffff8381831617835250505050611e49565b50505050565b8173ffffffffffffffffffffffffffffffffffffffff168373ffffffffffffffffffffffffffffffffffffffff161415611c31576040517f08c379a0000000000000000000000000000000000000000000000000000000008152600401611c28906132b4565b60405180910390fd5b80600560008573ffffffffffffffffffffffffffffffffffffffff1673ffffffffffffffffffffffffffffffffffffffff16815260200190815260200160002060008473ffffffffffffffffffffffffffffffffffffffff1673ffffffffffffffffffffffffffffffffffffffff16815260200190815260200160002060006101000a81548160ff0219169083151502179055508173ffffffffffffffffffffffffffffffffffffffff168373ffffffffffffffffffffffffffffffffffffffff167f17307eab39ab6107e8899845ad3d59bd9653f200f220920489ca2b5937696c3183604051611d229190613178565b60405180910390a3505050565b611d3a8484846113d1565b611d4684848484611ed2565b611d85576040517f08c379a0000000000000000000000000000000000000000000000000000000008152600401611d7c90613254565b60405180910390fd5b50505050565b606060405180602001604052806000815250905090565b6060611dad826111c6565b611dec576040517f08c379a0000000000000000000000000000000000000000000000000000000008152600401611de3906133f4565b60405180910390fd5b6000611df6611d8b565b90506000815111611e165760405180602001604052806000815250611e41565b80611e208461162d565b604051602001611e31929190612fa6565b6040516020818303038152906040525b915050919050565b60008151905060006a636f6e736f6c652e6c6f679050602083016000808483855afa5050505050565b505050565b611e818383612069565b611e8e6000848484611ed2565b611ecd576040517f08c379a0000000000000000000000000000000000000000000000000000000008152600401611ec490613254565b60405180910390fd5b505050565b6000611ef38473ffffffffffffffffffffffffffffffffffffffff16612237565b1561205c578373ffffffffffffffffffffffffffffffffffffffff1663150b7a02611f1c611232565b8786866040518563ffffffff1660e01b8152600401611f3e949392919061312c565b602060405180830381600087803b158015611f5857600080fd5b505af1925050508015611f8957506040513d601f19601f82011682018060405250810190611f86919061258e565b60015b61200c573d8060008114611fb9576040519150601f19603f3d011682016040523d82523d6000602084013e611fbe565b606091505b50600081511415612004576040517f08c379a0000000000000000000000000000000000000000000000000000000008152600401611ffb90613254565b60405180910390fd5b805181602001fd5b63150b7a0260e01b7bffffffffffffffffffffffffffffffffffffffffffffffffffffffff1916817bffffffffffffffffffffffffffffffffffffffffffffffffffffffff191614915050612061565b600190505b949350505050565b600073ffffffffffffffffffffffffffffffffffffffff168273ffffffffffffffffffffffffffffffffffffffff1614156120d9576040517f08c379a00000000000000000000000000000000000000000000000000000000081526004016120d090613374565b60405180910390fd5b6120e2816111c6565b15612122576040517f08c379a000000000000000000000000000000000000000000000000000000000815260040161211990613274565b60405180910390fd5b61212e60008383611e72565b6001600360008473ffffffffffffffffffffffffffffffffffffffff1673ffffffffffffffffffffffffffffffffffffffff168152602001908152602001600020600082825461217e9190613528565b92505081905550816002600083815260200190815260200160002060006101000a81548173ffffffffffffffffffffffffffffffffffffffff021916908373ffffffffffffffffffffffffffffffffffffffff160217905550808273ffffffffffffffffffffffffffffffffffffffff16600073ffffffffffffffffffffffffffffffffffffffff167fddf252ad1be2c89b69c2b068fc378daa952ba7f163c4a11628f55a4df523b3ef60405160405180910390a45050565b600080823b905060008111915050919050565b828054612256906136f3565b90600052602060002090601f01602090048101928261227857600085556122bf565b82601f1061229157805160ff19168380011785556122bf565b828001600101855582156122bf579182015b828111156122be5782518255916020019190600101906122a3565b5b5090506122cc91906122d0565b5090565b5b808211156122e95760008160009055506001016122d1565b5090565b60006123006122fb846134a0565b61346f565b90508281526020810184848401111561231857600080fd5b6123238482856136b1565b509392505050565b60008135905061233a8161386c565b92915050565b60008135905061234f81613883565b92915050565b6000813590506123648161389a565b92915050565b6000815190506123798161389a565b92915050565b600082601f83011261239057600080fd5b81356123a08482602086016122ed565b91505092915050565b6000813590506123b8816138b1565b92915050565b6000602082840312156123d057600080fd5b60006123de8482850161232b565b91505092915050565b600080604083850312156123fa57600080fd5b60006124088582860161232b565b92505060206124198582860161232b565b9150509250929050565b60008060006060848603121561243857600080fd5b60006124468682870161232b565b93505060206124578682870161232b565b9250506040612468868287016123a9565b9150509250925092565b6000806000806080858703121561248857600080fd5b60006124968782880161232b565b94505060206124a78782880161232b565b93505060406124b8878288016123a9565b925050606085013567ffffffffffffffff8111156124d557600080fd5b6124e18782880161237f565b91505092959194509250565b6000806040838503121561250057600080fd5b600061250e8582860161232b565b925050602061251f85828601612340565b9150509250929050565b6000806040838503121561253c57600080fd5b600061254a8582860161232b565b925050602061255b858286016123a9565b9150509250929050565b60006020828403121561257757600080fd5b600061258584828501612355565b91505092915050565b6000602082840312156125a057600080fd5b60006125ae8482850161236a565b91505092915050565b6000602082840312156125c957600080fd5b60006125d7848285016123a9565b91505092915050565b6125e98161363d565b82525050565b6125f88161364f565b82525050565b6000612609826134e5565b61261381856134fb565b93506126238185602086016136c0565b61262c8161385b565b840191505092915050565b6000612642826134f0565b61264c818561350c565b935061265c8185602086016136c0565b6126658161385b565b840191505092915050565b600061267b826134f0565b612685818561351d565b93506126958185602086016136c0565b80840191505092915050565b600081546126ae816136f3565b6126b8818661351d565b945060018216600081146126d357600181146126e457612717565b60ff19831686528186019350612717565b6126ed856134d0565b60005b8381101561270f578154818901526001820191506020810190506126f0565b838801955050505b50505092915050565b600061272d60328361350c565b91507f4552433732313a207472616e7366657220746f206e6f6e20455243373231526560008301527f63656976657220696d706c656d656e74657200000000000000000000000000006020830152604082019050919050565b6000612793601c8361350c565b91507f4552433732313a20746f6b656e20616c7265616479206d696e746564000000006000830152602082019050919050565b60006127d360668361351d565b91507f222c20226465736372697074696f6e223a20224120686967686c79206163636c60008301527f61696d656420636f6c6c656374696f6e206f66204c6567616c204e4654732e2260208301527f2c2022696d616765223a2022646174613a696d6167652f7376672b786d6c3b6260408301527f61736536342c00000000000000000000000000000000000000000000000000006060830152606682019050919050565b6000612885600a8361351d565b91507f54484952445f574f5244000000000000000000000000000000000000000000006000830152600a82019050919050565b60006128c560248361350c565b91507f4552433732313a207472616e7366657220746f20746865207a65726f2061646460008301527f72657373000000000000000000000000000000000000000000000000000000006020830152604082019050919050565b600061292b60198361350c565b91507f4552433732313a20617070726f766520746f2063616c6c6572000000000000006000830152602082019050919050565b600061296b600b8361351d565b91507f5345434f4e445f574f52440000000000000000000000000000000000000000006000830152600b82019050919050565b60006129ab602c8361350c565b91507f4552433732313a206f70657261746f7220717565727920666f72206e6f6e657860008301527f697374656e7420746f6b656e00000000000000000000000000000000000000006020830152604082019050919050565b6000612a11600d8361351d565b91507f3c2f746578743e3c2f7376673e000000000000000000000000000000000000006000830152600d82019050919050565b6000612a5160388361350c565b91507f4552433732313a20617070726f76652063616c6c6572206973206e6f74206f7760008301527f6e6572206e6f7220617070726f76656420666f7220616c6c00000000000000006020830152604082019050919050565b6000612ab7602a8361350c565b91507f4552433732313a2062616c616e636520717565727920666f7220746865207a6560008301527f726f2061646472657373000000000000000000000000000000000000000000006020830152604082019050919050565b6000612b1d60298361350c565b91507f4552433732313a206f776e657220717565727920666f72206e6f6e657869737460008301527f656e7420746f6b656e00000000000000000000000000000000000000000000006020830152604082019050919050565b6000612b83602e8361350c565b91507f45524337323155524953746f726167653a2055524920736574206f66206e6f6e60008301527f6578697374656e7420746f6b656e0000000000000000000000000000000000006020830152604082019050919050565b6000612be960028361351d565b91507f227d0000000000000000000000000000000000000000000000000000000000006000830152600282019050919050565b6000612c2960208361350c565b91507f4552433732313a206d696e7420746f20746865207a65726f20616464726573736000830152602082019050919050565b6000612c6960318361350c565b91507f45524337323155524953746f726167653a2055524920717565727920666f722060008301527f6e6f6e6578697374656e7420746f6b656e0000000000000000000000000000006020830152604082019050919050565b6000612ccf602c8361350c565b91507f4552433732313a20617070726f76656420717565727920666f72206e6f6e657860008301527f697374656e7420746f6b656e00000000000000000000000000000000000000006020830152604082019050919050565b6000612d3560298361350c565b91507f4552433732313a207472616e73666572206f6620746f6b656e2074686174206960008301527f73206e6f74206f776e00000000000000000000000000000000000000000000006020830152604082019050919050565b6000612d9b602f8361350c565b91507f4552433732314d657461646174613a2055524920717565727920666f72206e6f60008301527f6e6578697374656e7420746f6b656e00000000000000000000000000000000006020830152604082019050919050565b6000612e01600a8361351d565b91507f7b226e616d65223a2022000000000000000000000000000000000000000000006000830152600a82019050919050565b6000612e4160218361350c565b91507f4552433732313a20617070726f76616c20746f2063757272656e74206f776e6560008301527f72000000000000000000000000000000000000000000000000000000000000006020830152604082019050919050565b6000612ea7600a8361351d565b91507f46495253545f574f5244000000000000000000000000000000000000000000006000830152600a82019050919050565b6000612ee7601d8361351d565b91507f646174613a6170706c69636174696f6e2f6a736f6e3b6261736536342c0000006000830152601d82019050919050565b6000612f2760318361350c565b91507f4552433732313a207472616e736665722063616c6c6572206973206e6f74206f60008301527f776e6572206e6f7220617070726f7665640000000000000000000000000000006020830152604082019050919050565b612f89816136a7565b82525050565b6000612f9b8284612670565b915081905092915050565b6000612fb28285612670565b9150612fbe8284612670565b91508190509392505050565b6000612fd68286612670565b9150612fe28285612670565b9150612fee8284612670565b9150819050949350505050565b600061300782876126a1565b91506130138286612670565b915061301f8285612670565b915061302b8284612670565b915061303682612a04565b915081905095945050505050565b600061304f82612878565b915061305b8284612670565b915081905092915050565b60006130718261295e565b915061307d8284612670565b915081905092915050565b600061309382612df4565b915061309f8285612670565b91506130aa826127c6565b91506130b68284612670565b91506130c182612bdc565b91508190509392505050565b60006130d882612e9a565b91506130e48284612670565b915081905092915050565b60006130fa82612eda565b91506131068284612670565b915081905092915050565b600060208201905061312660008301846125e0565b92915050565b600060808201905061314160008301876125e0565b61314e60208301866125e0565b61315b6040830185612f80565b818103606083015261316d81846125fe565b905095945050505050565b600060208201905061318d60008301846125ef565b92915050565b600060208201905081810360008301526131ad8184612637565b905092915050565b600060808201905081810360008301526131cf8187612637565b905081810360208301526131e38186612637565b905081810360408301526131f78185612637565b9050818103606083015261320b8184612637565b905095945050505050565b600060608201905081810360008301526132308186612637565b905061323f6020830185612f80565b61324c60408301846125e0565b949350505050565b6000602082019050818103600083015261326d81612720565b9050919050565b6000602082019050818103600083015261328d81612786565b9050919050565b600060208201905081810360008301526132ad816128b8565b9050919050565b600060208201905081810360008301526132cd8161291e565b9050919050565b600060208201905081810360008301526132ed8161299e565b9050919050565b6000602082019050818103600083015261330d81612a44565b9050919050565b6000602082019050818103600083015261332d81612aaa565b9050919050565b6000602082019050818103600083015261334d81612b10565b9050919050565b6000602082019050818103600083015261336d81612b76565b9050919050565b6000602082019050818103600083015261338d81612c1c565b9050919050565b600060208201905081810360008301526133ad81612c5c565b9050919050565b600060208201905081810360008301526133cd81612cc2565b9050919050565b600060208201905081810360008301526133ed81612d28565b9050919050565b6000602082019050818103600083015261340d81612d8e565b9050919050565b6000602082019050818103600083015261342d81612e34565b9050919050565b6000602082019050818103600083015261344d81612f1a565b9050919050565b60006020820190506134696000830184612f80565b92915050565b6000604051905081810181811067ffffffffffffffff821117156134965761349561382c565b5b8060405250919050565b600067ffffffffffffffff8211156134bb576134ba61382c565b5b601f19601f8301169050602081019050919050565b60008190508160005260206000209050919050565b600081519050919050565b600081519050919050565b600082825260208201905092915050565b600082825260208201905092915050565b600081905092915050565b6000613533826136a7565b915061353e836136a7565b9250827fffffffffffffffffffffffffffffffffffffffffffffffffffffffffffffffff038211156135735761357261379f565b5b828201905092915050565b6000613589826136a7565b9150613594836136a7565b9250826135a4576135a36137ce565b5b828204905092915050565b60006135ba826136a7565b91506135c5836136a7565b9250817fffffffffffffffffffffffffffffffffffffffffffffffffffffffffffffffff04831182151516156135fe576135fd61379f565b5b828202905092915050565b6000613614826136a7565b915061361f836136a7565b9250828210156136325761363161379f565b5b828203905092915050565b600061364882613687565b9050919050565b60008115159050919050565b60007fffffffff0000000000000000000000000000000000000000000000000000000082169050919050565b600073ffffffffffffffffffffffffffffffffffffffff82169050919050565b6000819050919050565b82818337600083830152505050565b60005b838110156136de5780820151818401526020810190506136c3565b838111156136ed576000848401525b50505050565b6000600282049050600182168061370b57607f821691505b6020821081141561371f5761371e6137fd565b5b50919050565b6000613730826136a7565b91507fffffffffffffffffffffffffffffffffffffffffffffffffffffffffffffffff8214156137635761376261379f565b5b600182019050919050565b6000613779826136a7565b9150613784836136a7565b925082613794576137936137ce565b5b828206905092915050565b7f4e487b7100000000000000000000000000000000000000000000000000000000600052601160045260246000fd5b7f4e487b7100000000000000000000000000000000000000000000000000000000600052601260045260246000fd5b7f4e487b7100000000000000000000000000000000000000000000000000000000600052602260045260246000fd5b7f4e487b7100000000000000000000000000000000000000000000000000000000600052604160045260246000fd5b6000601f19601f8301169050919050565b6138758161363d565b811461388057600080fd5b50565b61388c8161364f565b811461389757600080fd5b50565b6138a38161365b565b81146138ae57600080fd5b50565b6138ba816136a7565b81146138c557600080fd5b5056fe54686520546f6b656e2773206e616d65206973202725732720616e64206974732073796d626f6c20697320272573272e204974732055524920646174612069732025734142434445464748494a4b4c4d4e4f505152535455565758595a6162636465666768696a6b6c6d6e6f707172737475767778797a303132333435363738392b2f41204e4654207769746820696420256420686173206265656e206d696e74656420666f722073656e646572202573a26469706673582212206710a59bce5ceb8661963661b65a90d874a2b7591d88e05af9e06fd2e07596b764736f6c634300080000333c73766720786d6c6e733d27687474703a2f2f7777772e77332e6f72672f323030302f73766727207072657365727665417370656374526174696f3d27784d696e594d696e206d656574272076696577426f783d273020302033353020333530273e3c7374796c653e2e62617365207b2066696c6c3a2077686974653b20666f6e742d66616d696c793a2073657269663b20666f6e742d73697a653a20323470783b207d3c2f7374796c653e3c726563742077696474683d273130302527206865696768743d2731303025272066696c6c3d27626c61636b27202f3e3c7465787420783d273530252720793d273530252720636c6173733d27626173652720646f6d696e616e742d626173656c696e653d276d6964646c652720746578742d616e63686f723d276d6964646c65273e",
  "linkReferences": {},
  "deployedLinkReferences": {}
}