{
  "_format": "hh-sol-artifact-1",
  "contractName": "EpicNFT",
  "sourceName": "contracts/EpicNFT.sol",
  "abi": [
    {
      "inputs": [],
      "stateMutability": "nonpayable",
      "type": "constructor"
    },
    {
      "anonymous": false,
      "inputs": [
        {
          "indexed": true,
          "internalType": "address",
          "name": "owner",
          "type": "address"
        },
        {
          "indexed": true,
          "internalType": "address",
          "name": "approved",
          "type": "address"
        },
        {
          "indexed": true,
          "internalType": "uint256",
          "name": "tokenId",
          "type": "uint256"
        }
      ],
      "name": "Approval",
      "type": "event"
    },
    {
      "anonymous": false,
      "inputs": [
        {
          "indexed": true,
          "internalType": "address",
          "name": "owner",
          "type": "address"
        },
        {
          "indexed": true,
          "internalType": "address",
          "name": "operator",
          "type": "address"
        },
        {
          "indexed": false,
          "internalType": "bool",
          "name": "approved",
          "type": "bool"
        }
      ],
      "name": "ApprovalForAll",
      "type": "event"
    },
    {
      "anonymous": false,
      "inputs": [
        {
          "indexed": false,
          "internalType": "address",
          "name": "sender",
          "type": "address"
        },
        {
          "indexed": false,
          "internalType": "uint256",
          "name": "tokenId",
          "type": "uint256"
        },
        {
          "indexed": false,
          "internalType": "uint256",
          "name": "maxTokens",
          "type": "uint256"
        }
      ],
      "name": "NewEpicNFTMinted",
      "type": "event"
    },
    {
      "anonymous": false,
      "inputs": [
        {
          "indexed": true,
          "internalType": "address",
          "name": "from",
          "type": "address"
        },
        {
          "indexed": true,
          "internalType": "address",
          "name": "to",
          "type": "address"
        },
        {
          "indexed": true,
          "internalType": "uint256",
          "name": "tokenId",
          "type": "uint256"
        }
      ],
      "name": "Transfer",
      "type": "event"
    },
    {
      "inputs": [
        {
          "internalType": "address",
          "name": "to",
          "type": "address"
        },
        {
          "internalType": "uint256",
          "name": "tokenId",
          "type": "uint256"
        }
      ],
      "name": "approve",
      "outputs": [],
      "stateMutability": "nonpayable",
      "type": "function"
    },
    {
      "inputs": [
        {
          "internalType": "address",
          "name": "owner",
          "type": "address"
        }
      ],
      "name": "balanceOf",
      "outputs": [
        {
          "internalType": "uint256",
          "name": "",
          "type": "uint256"
        }
      ],
      "stateMutability": "view",
      "type": "function"
    },
    {
      "inputs": [
        {
          "internalType": "uint256",
          "name": "tokenId",
          "type": "uint256"
        }
      ],
      "name": "getApproved",
      "outputs": [
        {
          "internalType": "address",
          "name": "",
          "type": "address"
        }
      ],
      "stateMutability": "view",
      "type": "function"
    },
    {
      "inputs": [
        {
          "internalType": "address",
          "name": "owner",
          "type": "address"
        },
        {
          "internalType": "address",
          "name": "operator",
          "type": "address"
        }
      ],
      "name": "isApprovedForAll",
      "outputs": [
        {
          "internalType": "bool",
          "name": "",
          "type": "bool"
        }
      ],
      "stateMutability": "view",
      "type": "function"
    },
    {
      "inputs": [],
      "name": "makeEpicNFT",
      "outputs": [],
      "stateMutability": "nonpayable",
      "type": "function"
    },
    {
      "inputs": [],
      "name": "name",
      "outputs": [
        {
          "internalType": "string",
          "name": "",
          "type": "string"
        }
      ],
      "stateMutability": "view",
      "type": "function"
    },
    {
      "inputs": [
        {
          "internalType": "uint256",
          "name": "tokenId",
          "type": "uint256"
        }
      ],
      "name": "ownerOf",
      "outputs": [
        {
          "internalType": "address",
          "name": "",
          "type": "address"
        }
      ],
      "stateMutability": "view",
      "type": "function"
    },
    {
      "inputs": [
        {
          "internalType": "uint256",
          "name": "tokenId",
          "type": "uint256"
        }
      ],
      "name": "pickRandomFirstWord",
      "outputs": [
        {
          "internalType": "string",
          "name": "",
          "type": "string"
        }
      ],
      "stateMutability": "view",
      "type": "function"
    },
    {
      "inputs": [
        {
          "internalType": "uint256",
          "name": "tokenId",
          "type": "uint256"
        }
      ],
      "name": "pickRandomSecondWord",
      "outputs": [
        {
          "internalType": "string",
          "name": "",
          "type": "string"
        }
      ],
      "stateMutability": "view",
      "type": "function"
    },
    {
      "inputs": [
        {
          "internalType": "uint256",
          "name": "tokenId",
          "type": "uint256"
        }
      ],
      "name": "pickRandomThirdWord",
      "outputs": [
        {
          "internalType": "string",
          "name": "",
          "type": "string"
        }
      ],
      "stateMutability": "view",
      "type": "function"
    },
    {
      "inputs": [
        {
          "internalType": "address",
          "name": "from",
          "type": "address"
        },
        {
          "internalType": "address",
          "name": "to",
          "type": "address"
        },
        {
          "internalType": "uint256",
          "name": "tokenId",
          "type": "uint256"
        }
      ],
      "name": "safeTransferFrom",
      "outputs": [],
      "stateMutability": "nonpayable",
      "type": "function"
    },
    {
      "inputs": [
        {
          "internalType": "address",
          "name": "from",
          "type": "address"
        },
        {
          "internalType": "address",
          "name": "to",
          "type": "address"
        },
        {
          "internalType": "uint256",
          "name": "tokenId",
          "type": "uint256"
        },
        {
          "internalType": "bytes",
          "name": "_data",
          "type": "bytes"
        }
      ],
      "name": "safeTransferFrom",
      "outputs": [],
      "stateMutability": "nonpayable",
      "type": "function"
    },
    {
      "inputs": [
        {
          "internalType": "address",
          "name": "operator",
          "type": "address"
        },
        {
          "internalType": "bool",
          "name": "approved",
          "type": "bool"
        }
      ],
      "name": "setApprovalForAll",
      "outputs": [],
      "stateMutability": "nonpayable",
      "type": "function"
    },
    {
      "inputs": [
        {
          "internalType": "bytes4",
          "name": "interfaceId",
          "type": "bytes4"
        }
      ],
      "name": "supportsInterface",
      "outputs": [
        {
          "internalType": "bool",
          "name": "",
          "type": "bool"
        }
      ],
      "stateMutability": "view",
      "type": "function"
    },
    {
      "inputs": [],
      "name": "symbol",
      "outputs": [
        {
          "internalType": "string",
          "name": "",
          "type": "string"
        }
      ],
      "stateMutability": "view",
      "type": "function"
    },
    {
      "inputs": [
        {
          "internalType": "uint256",
          "name": "tokenId",
          "type": "uint256"
        }
      ],
      "name": "tokenURI",
      "outputs": [
        {
          "internalType": "string",
          "name": "",
          "type": "string"
        }
      ],
      "stateMutability": "view",
      "type": "function"
    },
    {
      "inputs": [
        {
          "internalType": "address",
          "name": "from",
          "type": "address"
        },
        {
          "internalType": "address",
          "name": "to",
          "type": "address"
        },
        {
          "internalType": "uint256",
          "name": "tokenId",
          "type": "uint256"
        }
      ],
      "name": "transferFrom",
      "outputs": [],
      "stateMutability": "nonpayable",
      "type": "function"
    }
  ],
  "bytecode": "0x6080604052603260085560405180610160016040528061012f81526020016200437561012f9139600990805190602001906200003d92919062000683565b506040518060c001604052806040518060400160405280600681526020017f537175697265000000000000000000000000000000000000000000000000000081525081526020016040518060400160405280600381526020017f536572000000000000000000000000000000000000000000000000000000000081525081526020016040518060400160405280600381526020017f536972000000000000000000000000000000000000000000000000000000000081525081526020016040518060400160405280600781526020017f5965726f6e65720000000000000000000000000000000000000000000000000081525081526020016040518060400160405280600681526020017f4d696c617264000000000000000000000000000000000000000000000000000081525081526020016040518060400160405280600681526020017f4d796c6177640000000000000000000000000000000000000000000000000000815250815250600a906006620001bb92919062000714565b506040518060c001604052806040518060400160405280600481526020017f546f6d650000000000000000000000000000000000000000000000000000000081525081526020016040518060400160405280600781526020017f4d7574617469730000000000000000000000000000000000000000000000000081525081526020016040518060400160405280600881526020017f4d7574616e64697300000000000000000000000000000000000000000000000081525081526020016040518060400160405280600b81526020017f5375692d47656e6572697300000000000000000000000000000000000000000081525081526020016040518060400160405280600a81526020017f4970736f2d466163746f0000000000000000000000000000000000000000000081525081526020016040518060400160405280600f81526020017f436574657269732d506172696275730000000000000000000000000000000000815250815250600b9060066200033992919062000714565b506040518060c001604052806040518060400160405280600581526020017f476176656c00000000000000000000000000000000000000000000000000000081525081526020016040518060400160405280600381526020017f576967000000000000000000000000000000000000000000000000000000000081525081526020016040518060400160405280600481526020017f526f62650000000000000000000000000000000000000000000000000000000081525081526020016040518060400160405280600981526020017f54696d657368656574000000000000000000000000000000000000000000000081525081526020016040518060400160405280600681526020017f427269656673000000000000000000000000000000000000000000000000000081525081526020016040518060400160405280600681526020017f446f636b65740000000000000000000000000000000000000000000000000000815250815250600c906006620004b792919062000714565b50348015620004c557600080fd5b506040518060400160405280600581526020017f7a704e46540000000000000000000000000000000000000000000000000000008152506040518060400160405280600681526020017f7a2d6e667479000000000000000000000000000000000000000000000000000081525081600090805190602001906200054a92919062000683565b5080600190805190602001906200056392919062000683565b505050620005b16040518060400160405280601f81526020017f54686973206973206d79204e465420636f6e74726163742e204c6f7264792100815250620005b760201b6200110d1760201c565b62000935565b6200065781604051602401620005ce919062000849565b6040516020818303038152906040527f41304fac000000000000000000000000000000000000000000000000000000007bffffffffffffffffffffffffffffffffffffffffffffffffffffffff19166020820180517bffffffffffffffffffffffffffffffffffffffffffffffffffffffff83818316178352505050506200065a60201b60201c565b50565b60008151905060006a636f6e736f6c652e6c6f679050602083016000808483855afa5050505050565b8280546200069190620008bf565b90600052602060002090601f016020900481019282620006b5576000855562000701565b82601f10620006d057805160ff191683800117855562000701565b8280016001018555821562000701579182015b8281111562000700578251825591602001919060010190620006e3565b5b5090506200071091906200077b565b5090565b82805482825590600052602060002090810192821562000768579160200282015b82811115620007675782518290805190602001906200075692919062000683565b509160200191906001019062000735565b5b5090506200077791906200079a565b5090565b5b80821115620007965760008160009055506001016200077c565b5090565b5b80821115620007be5760008181620007b49190620007c2565b506001016200079b565b5090565b508054620007d090620008bf565b6000825580601f10620007e4575062000805565b601f0160209004906000526020600020908101906200080491906200077b565b5b50565b600062000815826200086d565b62000821818562000878565b93506200083381856020860162000889565b6200083e8162000924565b840191505092915050565b6000602082019050818103600083015262000865818462000808565b905092915050565b600081519050919050565b600082825260208201905092915050565b60005b83811015620008a95780820151818401526020810190506200088c565b83811115620008b9576000848401525b50505050565b60006002820490506001821680620008d857607f821691505b60208210811415620008ef57620008ee620008f5565b5b50919050565b7f4e487b7100000000000000000000000000000000000000000000000000000000600052602260045260246000fd5b6000601f19601f8301169050919050565b613a3080620009456000396000f3fe608060405234801561001057600080fd5b506004361061010b5760003560e01c80636352211e116100a2578063b187301f11610071578063b187301f146102b6578063b88d4fde146102e6578063c575757a14610302578063c87b56dd14610332578063e985e9c5146103625761010b565b80636352211e1461021c57806370a082311461024c57806395d89b411461027c578063a22cb4651461029a5761010b565b806323b872dd116100de57806323b872dd146101aa5780632de38d68146101c657806342842e0e146101f657806362b41f49146102125761010b565b806301ffc9a71461011057806306fdde0314610140578063081812fc1461015e578063095ea7b31461018e575b600080fd5b61012a600480360381019061012591906125af565b610392565b60405161013791906131f9565b60405180910390f35b610148610474565b6040516101559190613214565b60405180910390f35b61017860048036038101906101739190612601565b610506565b604051610185919061315b565b60405180910390f35b6101a860048036038101906101a39190612573565b61058b565b005b6101c460048036038101906101bf919061246d565b6106a3565b005b6101e060048036038101906101db9190612601565b610703565b6040516101ed9190613214565b60405180910390f35b610210600480360381019061020b919061246d565b610821565b005b61021a610841565b005b61023660048036038101906102319190612601565b610a77565b604051610243919061315b565b60405180910390f35b61026660048036038101906102619190612408565b610b29565b60405161027391906134d5565b60405180910390f35b610284610be1565b6040516102919190613214565b60405180910390f35b6102b460048036038101906102af9190612537565b610c73565b005b6102d060048036038101906102cb9190612601565b610c89565b6040516102dd9190613214565b60405180910390f35b61030060048036038101906102fb91906124bc565b610da7565b005b61031c60048036038101906103179190612601565b610e09565b6040516103299190613214565b60405180910390f35b61034c60048036038101906103479190612601565b610f27565b6040516103599190613214565b60405180910390f35b61037c60048036038101906103779190612431565b611079565b60405161038991906131f9565b60405180910390f35b60007f80ac58cd000000000000000000000000000000000000000000000000000000007bffffffffffffffffffffffffffffffffffffffffffffffffffffffff1916827bffffffffffffffffffffffffffffffffffffffffffffffffffffffff1916148061045d57507f5b5e139f000000000000000000000000000000000000000000000000000000007bffffffffffffffffffffffffffffffffffffffffffffffffffffffff1916827bffffffffffffffffffffffffffffffffffffffffffffffffffffffff1916145b8061046d575061046c826111a6565b5b9050919050565b60606000805461048390613774565b80601f01602080910402602001604051908101604052809291908181526020018280546104af90613774565b80156104fc5780601f106104d1576101008083540402835291602001916104fc565b820191906000526020600020905b8154815290600101906020018083116104df57829003601f168201915b5050505050905090565b600061051182611210565b610550576040517f08c379a000000000000000000000000000000000000000000000000000000000815260040161054790613435565b60405180910390fd5b6004600083815260200190815260200160002060009054906101000a900473ffffffffffffffffffffffffffffffffffffffff169050919050565b600061059682610a77565b90508073ffffffffffffffffffffffffffffffffffffffff168373ffffffffffffffffffffffffffffffffffffffff161415610607576040517f08c379a00000000000000000000000000000000000000000000000000000000081526004016105fe90613495565b60405180910390fd5b8073ffffffffffffffffffffffffffffffffffffffff1661062661127c565b73ffffffffffffffffffffffffffffffffffffffff16148061065557506106548161064f61127c565b611079565b5b610694576040517f08c379a000000000000000000000000000000000000000000000000000000000815260040161068b90613375565b60405180910390fd5b61069e8383611284565b505050565b6106b46106ae61127c565b8261133d565b6106f3576040517f08c379a00000000000000000000000000000000000000000000000000000000081526004016106ea906134b5565b60405180910390fd5b6106fe83838361141b565b505050565b6060600061073761071384611677565b6040516020016107239190613117565b604051602081830303815290604052611824565b9050600a805490508161074a91906137ef565b9050600a8181548110610786577f4e487b7100000000000000000000000000000000000000000000000000000000600052603260045260246000fd5b90600052602060002001805461079b90613774565b80601f01602080910402602001604051908101604052809291908181526020018280546107c790613774565b80156108145780601f106107e957610100808354040283529160200191610814565b820191906000526020600020905b8154815290600101906020018083116107f757829003601f168201915b5050505050915050919050565b61083c83838360405180602001604052806000815250610da7565b505050565b600061084d6007611857565b90506032811061085c57600080fd5b600061086782610703565b9050600061087483610c89565b9050600061088184610e09565b9050600083838360405160200161089a93929190613014565b6040516020818303038152906040529050600060098585856040516020016108c59493929190613045565b6040516020818303038152906040529050600061090a836108e584611865565b6040516020016108f69291906130d2565b604051602081830303815290604052611865565b90506109163388611a23565b6000816040516020016109299190613139565b60405160208183030381529060405290506109786040518060400160405280601581526020017f0a2d2d2d2d2d2d2d2d2d2d2d2d2d2d2d2d2d2d2d2d000000000000000000000081525061110d565b6109818161110d565b6109bf6040518060400160405280601581526020017f2d2d2d2d2d2d2d2d2d2d2d2d2d2d2d2d2d2d2d2d0a000000000000000000000081525061110d565b6109c98882611a41565b6109ec6040518060600160405280602e81526020016139cd602e91398933611ab5565b6109f66007611b54565b610a3060405180608001604052806043815260200161394a60439139610a1a610474565b610a22610be1565b610a2b8c610f27565b611b6a565b7f9e9e101732de0887d722bd72c01c5439edc857c9c2c763953d67e66de12441d33389600854604051610a65939291906131c2565b60405180910390a15050505050505050565b6000806002600084815260200190815260200160002060009054906101000a900473ffffffffffffffffffffffffffffffffffffffff169050600073ffffffffffffffffffffffffffffffffffffffff168173ffffffffffffffffffffffffffffffffffffffff161415610b20576040517f08c379a0000000000000000000000000000000000000000000000000000000008152600401610b17906133b5565b60405180910390fd5b80915050919050565b60008073ffffffffffffffffffffffffffffffffffffffff168273ffffffffffffffffffffffffffffffffffffffff161415610b9a576040517f08c379a0000000000000000000000000000000000000000000000000000000008152600401610b9190613395565b60405180910390fd5b600360008373ffffffffffffffffffffffffffffffffffffffff1673ffffffffffffffffffffffffffffffffffffffff168152602001908152602001600020549050919050565b606060018054610bf090613774565b80601f0160208091040260200160405190810160405280929190818152602001828054610c1c90613774565b8015610c695780601f10610c3e57610100808354040283529160200191610c69565b820191906000526020600020905b815481529060010190602001808311610c4c57829003601f168201915b5050505050905090565b610c85610c7e61127c565b8383611c0c565b5050565b60606000610cbd610c9984611677565b604051602001610ca991906130b0565b604051602081830303815290604052611824565b9050600b8054905081610cd091906137ef565b9050600b8181548110610d0c577f4e487b7100000000000000000000000000000000000000000000000000000000600052603260045260246000fd5b906000526020600020018054610d2190613774565b80601f0160208091040260200160405190810160405280929190818152602001828054610d4d90613774565b8015610d9a5780601f10610d6f57610100808354040283529160200191610d9a565b820191906000526020600020905b815481529060010190602001808311610d7d57829003601f168201915b5050505050915050919050565b610db8610db261127c565b8361133d565b610df7576040517f08c379a0000000000000000000000000000000000000000000000000000000008152600401610dee906134b5565b60405180910390fd5b610e0384848484611d79565b50505050565b60606000610e3d610e1984611677565b604051602001610e29919061308e565b604051602081830303815290604052611824565b9050600c8054905081610e5091906137ef565b9050600c8181548110610e8c577f4e487b7100000000000000000000000000000000000000000000000000000000600052603260045260246000fd5b906000526020600020018054610ea190613774565b80601f0160208091040260200160405190810160405280929190818152602001828054610ecd90613774565b8015610f1a5780601f10610eef57610100808354040283529160200191610f1a565b820191906000526020600020905b815481529060010190602001808311610efd57829003601f168201915b5050505050915050919050565b6060610f3282611210565b610f71576040517f08c379a0000000000000000000000000000000000000000000000000000000008152600401610f6890613415565b60405180910390fd5b6000600660008481526020019081526020016000208054610f9190613774565b80601f0160208091040260200160405190810160405280929190818152602001828054610fbd90613774565b801561100a5780601f10610fdf5761010080835404028352916020019161100a565b820191906000526020600020905b815481529060010190602001808311610fed57829003601f168201915b50505050509050600061101b611dd5565b9050600081511415611031578192505050611074565b60008251111561106657808260405160200161104e929190612ff0565b60405160208183030381529060405292505050611074565b61106f84611dec565b925050505b919050565b6000600560008473ffffffffffffffffffffffffffffffffffffffff1673ffffffffffffffffffffffffffffffffffffffff16815260200190815260200160002060008373ffffffffffffffffffffffffffffffffffffffff1673ffffffffffffffffffffffffffffffffffffffff16815260200190815260200160002060009054906101000a900460ff16905092915050565b6111a3816040516024016111219190613214565b6040516020818303038152906040527f41304fac000000000000000000000000000000000000000000000000000000007bffffffffffffffffffffffffffffffffffffffffffffffffffffffff19166020820180517bffffffffffffffffffffffffffffffffffffffffffffffffffffffff8381831617835250505050611e93565b50565b60007f01ffc9a7000000000000000000000000000000000000000000000000000000007bffffffffffffffffffffffffffffffffffffffffffffffffffffffff1916827bffffffffffffffffffffffffffffffffffffffffffffffffffffffff1916149050919050565b60008073ffffffffffffffffffffffffffffffffffffffff166002600084815260200190815260200160002060009054906101000a900473ffffffffffffffffffffffffffffffffffffffff1673ffffffffffffffffffffffffffffffffffffffff1614159050919050565b600033905090565b816004600083815260200190815260200160002060006101000a81548173ffffffffffffffffffffffffffffffffffffffff021916908373ffffffffffffffffffffffffffffffffffffffff160217905550808273ffffffffffffffffffffffffffffffffffffffff166112f783610a77565b73ffffffffffffffffffffffffffffffffffffffff167f8c5be1e5ebec7d5bd14f71427d1e84f3dd0314c0f7b2291e5b200ac8c7c3b92560405160405180910390a45050565b600061134882611210565b611387576040517f08c379a000000000000000000000000000000000000000000000000000000000815260040161137e90613355565b60405180910390fd5b600061139283610a77565b90508073ffffffffffffffffffffffffffffffffffffffff168473ffffffffffffffffffffffffffffffffffffffff16148061140157508373ffffffffffffffffffffffffffffffffffffffff166113e984610506565b73ffffffffffffffffffffffffffffffffffffffff16145b8061141257506114118185611079565b5b91505092915050565b8273ffffffffffffffffffffffffffffffffffffffff1661143b82610a77565b73ffffffffffffffffffffffffffffffffffffffff1614611491576040517f08c379a000000000000000000000000000000000000000000000000000000000815260040161148890613455565b60405180910390fd5b600073ffffffffffffffffffffffffffffffffffffffff168273ffffffffffffffffffffffffffffffffffffffff161415611501576040517f08c379a00000000000000000000000000000000000000000000000000000000081526004016114f890613315565b60405180910390fd5b61150c838383611ebc565b611517600082611284565b6001600360008573ffffffffffffffffffffffffffffffffffffffff1673ffffffffffffffffffffffffffffffffffffffff1681526020019081526020016000206000828254611567919061368a565b925050819055506001600360008473ffffffffffffffffffffffffffffffffffffffff1673ffffffffffffffffffffffffffffffffffffffff16815260200190815260200160002060008282546115be91906135a9565b92505081905550816002600083815260200190815260200160002060006101000a81548173ffffffffffffffffffffffffffffffffffffffff021916908373ffffffffffffffffffffffffffffffffffffffff160217905550808273ffffffffffffffffffffffffffffffffffffffff168473ffffffffffffffffffffffffffffffffffffffff167fddf252ad1be2c89b69c2b068fc378daa952ba7f163c4a11628f55a4df523b3ef60405160405180910390a4505050565b606060008214156116bf576040518060400160405280600181526020017f3000000000000000000000000000000000000000000000000000000000000000815250905061181f565b600082905060005b600082146116f15780806116da906137a6565b915050600a826116ea91906135ff565b91506116c7565b60008167ffffffffffffffff811115611733577f4e487b7100000000000000000000000000000000000000000000000000000000600052604160045260246000fd5b6040519080825280601f01601f1916602001820160405280156117655781602001600182028036833780820191505090505b5090505b600085146118185760018261177e919061368a565b9150600a8561178d91906137ef565b603061179991906135a9565b60f81b8183815181106117d5577f4e487b7100000000000000000000000000000000000000000000000000000000600052603260045260246000fd5b60200101907effffffffffffffffffffffffffffffffffffffffffffffffffffffffffffff1916908160001a905350600a8561181191906135ff565b9450611769565b8093505050505b919050565b6000816040516020016118379190612fd9565b6040516020818303038152906040528051906020012060001c9050919050565b600081600001549050919050565b6060600082519050600081141561188e5760405180602001604052806000815250915050611a1e565b6000600360028361189f91906135a9565b6118a991906135ff565b60046118b59190613630565b905060006020826118c691906135a9565b67ffffffffffffffff811115611905577f4e487b7100000000000000000000000000000000000000000000000000000000600052604160045260246000fd5b6040519080825280601f01601f1916602001820160405280156119375781602001600182028036833780820191505090505b509050600060405180606001604052806040815260200161398d604091399050600181016020830160005b868110156119db5760038101905062ffffff818a015116603f8160121c168401518060081b905060ff603f83600c1c1686015116810190508060081b905060ff603f8360061c1686015116810190508060081b905060ff603f831686015116810190508060e01b90508084526004840193505050611962565b5060038606600181146119f55760028114611a0557611a10565b613d3d60f01b6002830352611a10565b603d60f81b60018303525b508484525050819450505050505b919050565b611a3d828260405180602001604052806000815250611ec1565b5050565b611a4a82611210565b611a89576040517f08c379a0000000000000000000000000000000000000000000000000000000008152600401611a80906133d5565b60405180910390fd5b80600660008481526020019081526020016000209080519060200190611ab0929190612294565b505050565b611b4f838383604051602401611acd93929190613297565b6040516020818303038152906040527fe3849f79000000000000000000000000000000000000000000000000000000007bffffffffffffffffffffffffffffffffffffffffffffffffffffffff19166020820180517bffffffffffffffffffffffffffffffffffffffffffffffffffffffff8381831617835250505050611e93565b505050565b6001816000016000828254019250508190555050565b611c0684848484604051602401611b849493929190613236565b6040516020818303038152906040527fde68f20a000000000000000000000000000000000000000000000000000000007bffffffffffffffffffffffffffffffffffffffffffffffffffffffff19166020820180517bffffffffffffffffffffffffffffffffffffffffffffffffffffffff8381831617835250505050611e93565b50505050565b8173ffffffffffffffffffffffffffffffffffffffff168373ffffffffffffffffffffffffffffffffffffffff161415611c7b576040517f08c379a0000000000000000000000000000000000000000000000000000000008152600401611c7290613335565b60405180910390fd5b80600560008573ffffffffffffffffffffffffffffffffffffffff1673ffffffffffffffffffffffffffffffffffffffff16815260200190815260200160002060008473ffffffffffffffffffffffffffffffffffffffff1673ffffffffffffffffffffffffffffffffffffffff16815260200190815260200160002060006101000a81548160ff0219169083151502179055508173ffffffffffffffffffffffffffffffffffffffff168373ffffffffffffffffffffffffffffffffffffffff167f17307eab39ab6107e8899845ad3d59bd9653f200f220920489ca2b5937696c3183604051611d6c91906131f9565b60405180910390a3505050565b611d8484848461141b565b611d9084848484611f1c565b611dcf576040517f08c379a0000000000000000000000000000000000000000000000000000000008152600401611dc6906132d5565b60405180910390fd5b50505050565b606060405180602001604052806000815250905090565b6060611df782611210565b611e36576040517f08c379a0000000000000000000000000000000000000000000000000000000008152600401611e2d90613475565b60405180910390fd5b6000611e40611dd5565b90506000815111611e605760405180602001604052806000815250611e8b565b80611e6a84611677565b604051602001611e7b929190612ff0565b6040516020818303038152906040525b915050919050565b60008151905060006a636f6e736f6c652e6c6f679050602083016000808483855afa5050505050565b505050565b611ecb83836120b3565b611ed86000848484611f1c565b611f17576040517f08c379a0000000000000000000000000000000000000000000000000000000008152600401611f0e906132d5565b60405180910390fd5b505050565b6000611f3d8473ffffffffffffffffffffffffffffffffffffffff16612281565b156120a6578373ffffffffffffffffffffffffffffffffffffffff1663150b7a02611f6661127c565b8786866040518563ffffffff1660e01b8152600401611f889493929190613176565b602060405180830381600087803b158015611fa257600080fd5b505af1925050508015611fd357506040513d601f19601f82011682018060405250810190611fd091906125d8565b60015b612056573d8060008114612003576040519150601f19603f3d011682016040523d82523d6000602084013e612008565b606091505b5060008151141561204e576040517f08c379a0000000000000000000000000000000000000000000000000000000008152600401612045906132d5565b60405180910390fd5b805181602001fd5b63150b7a0260e01b7bffffffffffffffffffffffffffffffffffffffffffffffffffffffff1916817bffffffffffffffffffffffffffffffffffffffffffffffffffffffff1916149150506120ab565b600190505b949350505050565b600073ffffffffffffffffffffffffffffffffffffffff168273ffffffffffffffffffffffffffffffffffffffff161415612123576040517f08c379a000000000000000000000000000000000000000000000000000000000815260040161211a906133f5565b60405180910390fd5b61212c81611210565b1561216c576040517f08c379a0000000000000000000000000000000000000000000000000000000008152600401612163906132f5565b60405180910390fd5b61217860008383611ebc565b6001600360008473ffffffffffffffffffffffffffffffffffffffff1673ffffffffffffffffffffffffffffffffffffffff16815260200190815260200160002060008282546121c891906135a9565b92505081905550816002600083815260200190815260200160002060006101000a81548173ffffffffffffffffffffffffffffffffffffffff021916908373ffffffffffffffffffffffffffffffffffffffff160217905550808273ffffffffffffffffffffffffffffffffffffffff16600073ffffffffffffffffffffffffffffffffffffffff167fddf252ad1be2c89b69c2b068fc378daa952ba7f163c4a11628f55a4df523b3ef60405160405180910390a45050565b600080823b905060008111915050919050565b8280546122a090613774565b90600052602060002090601f0160209004810192826122c25760008555612309565b82601f106122db57805160ff1916838001178555612309565b82800160010185558215612309579182015b828111156123085782518255916020019190600101906122ed565b5b509050612316919061231a565b5090565b5b8082111561233357600081600090555060010161231b565b5090565b600061234a61234584613521565b6134f0565b90508281526020810184848401111561236257600080fd5b61236d848285613732565b509392505050565b600081359050612384816138ed565b92915050565b60008135905061239981613904565b92915050565b6000813590506123ae8161391b565b92915050565b6000815190506123c38161391b565b92915050565b600082601f8301126123da57600080fd5b81356123ea848260208601612337565b91505092915050565b60008135905061240281613932565b92915050565b60006020828403121561241a57600080fd5b600061242884828501612375565b91505092915050565b6000806040838503121561244457600080fd5b600061245285828601612375565b925050602061246385828601612375565b9150509250929050565b60008060006060848603121561248257600080fd5b600061249086828701612375565b93505060206124a186828701612375565b92505060406124b2868287016123f3565b9150509250925092565b600080600080608085870312156124d257600080fd5b60006124e087828801612375565b94505060206124f187828801612375565b9350506040612502878288016123f3565b925050606085013567ffffffffffffffff81111561251f57600080fd5b61252b878288016123c9565b91505092959194509250565b6000806040838503121561254a57600080fd5b600061255885828601612375565b92505060206125698582860161238a565b9150509250929050565b6000806040838503121561258657600080fd5b600061259485828601612375565b92505060206125a5858286016123f3565b9150509250929050565b6000602082840312156125c157600080fd5b60006125cf8482850161239f565b91505092915050565b6000602082840312156125ea57600080fd5b60006125f8848285016123b4565b91505092915050565b60006020828403121561261357600080fd5b6000612621848285016123f3565b91505092915050565b612633816136be565b82525050565b612642816136d0565b82525050565b600061265382613566565b61265d818561357c565b935061266d818560208601613741565b612676816138dc565b840191505092915050565b600061268c82613571565b612696818561358d565b93506126a6818560208601613741565b6126af816138dc565b840191505092915050565b60006126c582613571565b6126cf818561359e565b93506126df818560208601613741565b80840191505092915050565b600081546126f881613774565b612702818661359e565b9450600182166000811461271d576001811461272e57612761565b60ff19831686528186019350612761565b61273785613551565b60005b838110156127595781548189015260018201915060208101905061273a565b838801955050505b50505092915050565b600061277760328361358d565b91507f4552433732313a207472616e7366657220746f206e6f6e20455243373231526560008301527f63656976657220696d706c656d656e74657200000000000000000000000000006020830152604082019050919050565b60006127dd601c8361358d565b91507f4552433732313a20746f6b656e20616c7265616479206d696e746564000000006000830152602082019050919050565b600061281d60668361359e565b91507f222c20226465736372697074696f6e223a20224120686967686c79206163636c60008301527f61696d656420636f6c6c656374696f6e206f66204c6567616c204e4654732e2260208301527f2c2022696d616765223a2022646174613a696d6167652f7376672b786d6c3b6260408301527f61736536342c00000000000000000000000000000000000000000000000000006060830152606682019050919050565b60006128cf600a8361359e565b91507f54484952445f574f5244000000000000000000000000000000000000000000006000830152600a82019050919050565b600061290f60248361358d565b91507f4552433732313a207472616e7366657220746f20746865207a65726f2061646460008301527f72657373000000000000000000000000000000000000000000000000000000006020830152604082019050919050565b600061297560198361358d565b91507f4552433732313a20617070726f766520746f2063616c6c6572000000000000006000830152602082019050919050565b60006129b5600b8361359e565b91507f5345434f4e445f574f52440000000000000000000000000000000000000000006000830152600b82019050919050565b60006129f5602c8361358d565b91507f4552433732313a206f70657261746f7220717565727920666f72206e6f6e657860008301527f697374656e7420746f6b656e00000000000000000000000000000000000000006020830152604082019050919050565b6000612a5b600d8361359e565b91507f3c2f746578743e3c2f7376673e000000000000000000000000000000000000006000830152600d82019050919050565b6000612a9b60388361358d565b91507f4552433732313a20617070726f76652063616c6c6572206973206e6f74206f7760008301527f6e6572206e6f7220617070726f76656420666f7220616c6c00000000000000006020830152604082019050919050565b6000612b01602a8361358d565b91507f4552433732313a2062616c616e636520717565727920666f7220746865207a6560008301527f726f2061646472657373000000000000000000000000000000000000000000006020830152604082019050919050565b6000612b6760298361358d565b91507f4552433732313a206f776e657220717565727920666f72206e6f6e657869737460008301527f656e7420746f6b656e00000000000000000000000000000000000000000000006020830152604082019050919050565b6000612bcd602e8361358d565b91507f45524337323155524953746f726167653a2055524920736574206f66206e6f6e60008301527f6578697374656e7420746f6b656e0000000000000000000000000000000000006020830152604082019050919050565b6000612c3360028361359e565b91507f227d0000000000000000000000000000000000000000000000000000000000006000830152600282019050919050565b6000612c7360208361358d565b91507f4552433732313a206d696e7420746f20746865207a65726f20616464726573736000830152602082019050919050565b6000612cb360318361358d565b91507f45524337323155524953746f726167653a2055524920717565727920666f722060008301527f6e6f6e6578697374656e7420746f6b656e0000000000000000000000000000006020830152604082019050919050565b6000612d19602c8361358d565b91507f4552433732313a20617070726f76656420717565727920666f72206e6f6e657860008301527f697374656e7420746f6b656e00000000000000000000000000000000000000006020830152604082019050919050565b6000612d7f60298361358d565b91507f4552433732313a207472616e73666572206f6620746f6b656e2074686174206960008301527f73206e6f74206f776e00000000000000000000000000000000000000000000006020830152604082019050919050565b6000612de5602f8361358d565b91507f4552433732314d657461646174613a2055524920717565727920666f72206e6f60008301527f6e6578697374656e7420746f6b656e00000000000000000000000000000000006020830152604082019050919050565b6000612e4b600a8361359e565b91507f7b226e616d65223a2022000000000000000000000000000000000000000000006000830152600a82019050919050565b6000612e8b60218361358d565b91507f4552433732313a20617070726f76616c20746f2063757272656e74206f776e6560008301527f72000000000000000000000000000000000000000000000000000000000000006020830152604082019050919050565b6000612ef1600a8361359e565b91507f46495253545f574f5244000000000000000000000000000000000000000000006000830152600a82019050919050565b6000612f31601d8361359e565b91507f646174613a6170706c69636174696f6e2f6a736f6e3b6261736536342c0000006000830152601d82019050919050565b6000612f7160318361358d565b91507f4552433732313a207472616e736665722063616c6c6572206973206e6f74206f60008301527f776e6572206e6f7220617070726f7665640000000000000000000000000000006020830152604082019050919050565b612fd381613728565b82525050565b6000612fe582846126ba565b915081905092915050565b6000612ffc82856126ba565b915061300882846126ba565b91508190509392505050565b600061302082866126ba565b915061302c82856126ba565b915061303882846126ba565b9150819050949350505050565b600061305182876126eb565b915061305d82866126ba565b915061306982856126ba565b915061307582846126ba565b915061308082612a4e565b915081905095945050505050565b6000613099826128c2565b91506130a582846126ba565b915081905092915050565b60006130bb826129a8565b91506130c782846126ba565b915081905092915050565b60006130dd82612e3e565b91506130e982856126ba565b91506130f482612810565b915061310082846126ba565b915061310b82612c26565b91508190509392505050565b600061312282612ee4565b915061312e82846126ba565b915081905092915050565b600061314482612f24565b915061315082846126ba565b915081905092915050565b6000602082019050613170600083018461262a565b92915050565b600060808201905061318b600083018761262a565b613198602083018661262a565b6131a56040830185612fca565b81810360608301526131b78184612648565b905095945050505050565b60006060820190506131d7600083018661262a565b6131e46020830185612fca565b6131f16040830184612fca565b949350505050565b600060208201905061320e6000830184612639565b92915050565b6000602082019050818103600083015261322e8184612681565b905092915050565b600060808201905081810360008301526132508187612681565b905081810360208301526132648186612681565b905081810360408301526132788185612681565b9050818103606083015261328c8184612681565b905095945050505050565b600060608201905081810360008301526132b18186612681565b90506132c06020830185612fca565b6132cd604083018461262a565b949350505050565b600060208201905081810360008301526132ee8161276a565b9050919050565b6000602082019050818103600083015261330e816127d0565b9050919050565b6000602082019050818103600083015261332e81612902565b9050919050565b6000602082019050818103600083015261334e81612968565b9050919050565b6000602082019050818103600083015261336e816129e8565b9050919050565b6000602082019050818103600083015261338e81612a8e565b9050919050565b600060208201905081810360008301526133ae81612af4565b9050919050565b600060208201905081810360008301526133ce81612b5a565b9050919050565b600060208201905081810360008301526133ee81612bc0565b9050919050565b6000602082019050818103600083015261340e81612c66565b9050919050565b6000602082019050818103600083015261342e81612ca6565b9050919050565b6000602082019050818103600083015261344e81612d0c565b9050919050565b6000602082019050818103600083015261346e81612d72565b9050919050565b6000602082019050818103600083015261348e81612dd8565b9050919050565b600060208201905081810360008301526134ae81612e7e565b9050919050565b600060208201905081810360008301526134ce81612f64565b9050919050565b60006020820190506134ea6000830184612fca565b92915050565b6000604051905081810181811067ffffffffffffffff82111715613517576135166138ad565b5b8060405250919050565b600067ffffffffffffffff82111561353c5761353b6138ad565b5b601f19601f8301169050602081019050919050565b60008190508160005260206000209050919050565b600081519050919050565b600081519050919050565b600082825260208201905092915050565b600082825260208201905092915050565b600081905092915050565b60006135b482613728565b91506135bf83613728565b9250827fffffffffffffffffffffffffffffffffffffffffffffffffffffffffffffffff038211156135f4576135f3613820565b5b828201905092915050565b600061360a82613728565b915061361583613728565b9250826136255761362461384f565b5b828204905092915050565b600061363b82613728565b915061364683613728565b9250817fffffffffffffffffffffffffffffffffffffffffffffffffffffffffffffffff048311821515161561367f5761367e613820565b5b828202905092915050565b600061369582613728565b91506136a083613728565b9250828210156136b3576136b2613820565b5b828203905092915050565b60006136c982613708565b9050919050565b60008115159050919050565b60007fffffffff0000000000000000000000000000000000000000000000000000000082169050919050565b600073ffffffffffffffffffffffffffffffffffffffff82169050919050565b6000819050919050565b82818337600083830152505050565b60005b8381101561375f578082015181840152602081019050613744565b8381111561376e576000848401525b50505050565b6000600282049050600182168061378c57607f821691505b602082108114156137a05761379f61387e565b5b50919050565b60006137b182613728565b91507fffffffffffffffffffffffffffffffffffffffffffffffffffffffffffffffff8214156137e4576137e3613820565b5b600182019050919050565b60006137fa82613728565b915061380583613728565b9250826138155761381461384f565b5b828206905092915050565b7f4e487b7100000000000000000000000000000000000000000000000000000000600052601160045260246000fd5b7f4e487b7100000000000000000000000000000000000000000000000000000000600052601260045260246000fd5b7f4e487b7100000000000000000000000000000000000000000000000000000000600052602260045260246000fd5b7f4e487b7100000000000000000000000000000000000000000000000000000000600052604160045260246000fd5b6000601f19601f8301169050919050565b6138f6816136be565b811461390157600080fd5b50565b61390d816136d0565b811461391857600080fd5b50565b613924816136dc565b811461392f57600080fd5b50565b61393b81613728565b811461394657600080fd5b5056fe54686520546f6b656e2773206e616d65206973202725732720616e64206974732073796d626f6c20697320272573272e204974732055524920646174612069732025734142434445464748494a4b4c4d4e4f505152535455565758595a6162636465666768696a6b6c6d6e6f707172737475767778797a303132333435363738392b2f41204e4654207769746820696420256420686173206265656e206d696e74656420666f722073656e646572202573a2646970667358221220650925101d0f62e8b890fec0410990d6d7672aee21ce15f09a4913548666273764736f6c634300080000333c73766720786d6c6e733d27687474703a2f2f7777772e77332e6f72672f323030302f73766727207072657365727665417370656374526174696f3d27784d696e594d696e206d656574272076696577426f783d273020302033353020333530273e3c7374796c653e2e62617365207b2066696c6c3a2077686974653b20666f6e742d66616d696c793a2073657269663b20666f6e742d73697a653a20323470783b207d3c2f7374796c653e3c726563742077696474683d273130302527206865696768743d2731303025272066696c6c3d27626c61636b27202f3e3c7465787420783d273530252720793d273530252720636c6173733d27626173652720646f6d696e616e742d626173656c696e653d276d6964646c652720746578742d616e63686f723d276d6964646c65273e",
  "linkReferences": {},
  "deployedLinkReferences": {}
}