{
  "_format": "hh-sol-artifact-1",
  "contractName": "EpicNFT",
  "sourceName": "contracts/EpicNFT.sol",
  "abi": [
    {
      "inputs": [],
      "stateMutability": "nonpayable",
      "type": "constructor"
    },
    {
      "anonymous": false,
      "inputs": [
        {
          "indexed": true,
          "internalType": "address",
          "name": "owner",
          "type": "address"
        },
        {
          "indexed": true,
          "internalType": "address",
          "name": "approved",
          "type": "address"
        },
        {
          "indexed": true,
          "internalType": "uint256",
          "name": "tokenId",
          "type": "uint256"
        }
      ],
      "name": "Approval",
      "type": "event"
    },
    {
      "anonymous": false,
      "inputs": [
        {
          "indexed": true,
          "internalType": "address",
          "name": "owner",
          "type": "address"
        },
        {
          "indexed": true,
          "internalType": "address",
          "name": "operator",
          "type": "address"
        },
        {
          "indexed": false,
          "internalType": "bool",
          "name": "approved",
          "type": "bool"
        }
      ],
      "name": "ApprovalForAll",
      "type": "event"
    },
    {
      "anonymous": false,
      "inputs": [
        {
          "indexed": false,
          "internalType": "address",
          "name": "sender",
          "type": "address"
        },
        {
          "indexed": false,
          "internalType": "uint256",
          "name": "tokenId",
          "type": "uint256"
        },
        {
          "indexed": false,
          "internalType": "uint256",
          "name": "maxTokens",
          "type": "uint256"
        }
      ],
      "name": "NewEpicNFTMinted",
      "type": "event"
    },
    {
      "anonymous": false,
      "inputs": [
        {
          "indexed": true,
          "internalType": "address",
          "name": "from",
          "type": "address"
        },
        {
          "indexed": true,
          "internalType": "address",
          "name": "to",
          "type": "address"
        },
        {
          "indexed": true,
          "internalType": "uint256",
          "name": "tokenId",
          "type": "uint256"
        }
      ],
      "name": "Transfer",
      "type": "event"
    },
    {
      "inputs": [
        {
          "internalType": "address",
          "name": "to",
          "type": "address"
        },
        {
          "internalType": "uint256",
          "name": "tokenId",
          "type": "uint256"
        }
      ],
      "name": "approve",
      "outputs": [],
      "stateMutability": "nonpayable",
      "type": "function"
    },
    {
      "inputs": [
        {
          "internalType": "address",
          "name": "owner",
          "type": "address"
        }
      ],
      "name": "balanceOf",
      "outputs": [
        {
          "internalType": "uint256",
          "name": "",
          "type": "uint256"
        }
      ],
      "stateMutability": "view",
      "type": "function"
    },
    {
      "inputs": [
        {
          "internalType": "uint256",
          "name": "tokenId",
          "type": "uint256"
        }
      ],
      "name": "getApproved",
      "outputs": [
        {
          "internalType": "address",
          "name": "",
          "type": "address"
        }
      ],
      "stateMutability": "view",
      "type": "function"
    },
    {
      "inputs": [
        {
          "internalType": "address",
          "name": "owner",
          "type": "address"
        },
        {
          "internalType": "address",
          "name": "operator",
          "type": "address"
        }
      ],
      "name": "isApprovedForAll",
      "outputs": [
        {
          "internalType": "bool",
          "name": "",
          "type": "bool"
        }
      ],
      "stateMutability": "view",
      "type": "function"
    },
    {
      "inputs": [],
      "name": "makeEpicNFT",
      "outputs": [],
      "stateMutability": "nonpayable",
      "type": "function"
    },
    {
      "inputs": [],
      "name": "name",
      "outputs": [
        {
          "internalType": "string",
          "name": "",
          "type": "string"
        }
      ],
      "stateMutability": "view",
      "type": "function"
    },
    {
      "inputs": [
        {
          "internalType": "uint256",
          "name": "tokenId",
          "type": "uint256"
        }
      ],
      "name": "ownerOf",
      "outputs": [
        {
          "internalType": "address",
          "name": "",
          "type": "address"
        }
      ],
      "stateMutability": "view",
      "type": "function"
    },
    {
      "inputs": [
        {
          "internalType": "uint256",
          "name": "tokenId",
          "type": "uint256"
        }
      ],
      "name": "pickRandomColor",
      "outputs": [
        {
          "internalType": "string",
          "name": "",
          "type": "string"
        }
      ],
      "stateMutability": "view",
      "type": "function"
    },
    {
      "inputs": [
        {
          "internalType": "uint256",
          "name": "tokenId",
          "type": "uint256"
        }
      ],
      "name": "pickRandomFirstWord",
      "outputs": [
        {
          "internalType": "string",
          "name": "",
          "type": "string"
        }
      ],
      "stateMutability": "view",
      "type": "function"
    },
    {
      "inputs": [
        {
          "internalType": "uint256",
          "name": "tokenId",
          "type": "uint256"
        }
      ],
      "name": "pickRandomSecondWord",
      "outputs": [
        {
          "internalType": "string",
          "name": "",
          "type": "string"
        }
      ],
      "stateMutability": "view",
      "type": "function"
    },
    {
      "inputs": [
        {
          "internalType": "uint256",
          "name": "tokenId",
          "type": "uint256"
        }
      ],
      "name": "pickRandomThirdWord",
      "outputs": [
        {
          "internalType": "string",
          "name": "",
          "type": "string"
        }
      ],
      "stateMutability": "view",
      "type": "function"
    },
    {
      "inputs": [
        {
          "internalType": "address",
          "name": "from",
          "type": "address"
        },
        {
          "internalType": "address",
          "name": "to",
          "type": "address"
        },
        {
          "internalType": "uint256",
          "name": "tokenId",
          "type": "uint256"
        }
      ],
      "name": "safeTransferFrom",
      "outputs": [],
      "stateMutability": "nonpayable",
      "type": "function"
    },
    {
      "inputs": [
        {
          "internalType": "address",
          "name": "from",
          "type": "address"
        },
        {
          "internalType": "address",
          "name": "to",
          "type": "address"
        },
        {
          "internalType": "uint256",
          "name": "tokenId",
          "type": "uint256"
        },
        {
          "internalType": "bytes",
          "name": "_data",
          "type": "bytes"
        }
      ],
      "name": "safeTransferFrom",
      "outputs": [],
      "stateMutability": "nonpayable",
      "type": "function"
    },
    {
      "inputs": [
        {
          "internalType": "address",
          "name": "operator",
          "type": "address"
        },
        {
          "internalType": "bool",
          "name": "approved",
          "type": "bool"
        }
      ],
      "name": "setApprovalForAll",
      "outputs": [],
      "stateMutability": "nonpayable",
      "type": "function"
    },
    {
      "inputs": [
        {
          "internalType": "bytes4",
          "name": "interfaceId",
          "type": "bytes4"
        }
      ],
      "name": "supportsInterface",
      "outputs": [
        {
          "internalType": "bool",
          "name": "",
          "type": "bool"
        }
      ],
      "stateMutability": "view",
      "type": "function"
    },
    {
      "inputs": [],
      "name": "symbol",
      "outputs": [
        {
          "internalType": "string",
          "name": "",
          "type": "string"
        }
      ],
      "stateMutability": "view",
      "type": "function"
    },
    {
      "inputs": [
        {
          "internalType": "uint256",
          "name": "tokenId",
          "type": "uint256"
        }
      ],
      "name": "tokenURI",
      "outputs": [
        {
          "internalType": "string",
          "name": "",
          "type": "string"
        }
      ],
      "stateMutability": "view",
      "type": "function"
    },
    {
      "inputs": [
        {
          "internalType": "address",
          "name": "from",
          "type": "address"
        },
        {
          "internalType": "address",
          "name": "to",
          "type": "address"
        },
        {
          "internalType": "uint256",
          "name": "tokenId",
          "type": "uint256"
        }
      ],
      "name": "transferFrom",
      "outputs": [],
      "stateMutability": "nonpayable",
      "type": "function"
    }
  ],
  "bytecode": "0x6080604052603260085560405180610100016040528060d381526020016200470160d39139600990805190602001906200003b92919062000831565b50604051806080016040528060568152602001620047d460569139600a90805190602001906200006d92919062000831565b506040518060c001604052806040518060400160405280600381526020017f726564000000000000000000000000000000000000000000000000000000000081525081526020016040518060400160405280600781526020017f233038433241380000000000000000000000000000000000000000000000000081525081526020016040518060400160405280600581526020017f626c61636b00000000000000000000000000000000000000000000000000000081525081526020016040518060400160405280600681526020017f79656c6c6f77000000000000000000000000000000000000000000000000000081525081526020016040518060400160405280600481526020017f626c75650000000000000000000000000000000000000000000000000000000081525081526020016040518060400160405280600581526020017f677265656e000000000000000000000000000000000000000000000000000000815250815250600b906006620001eb929190620008c2565b506040518060c001604052806040518060400160405280600681526020017f537175697265000000000000000000000000000000000000000000000000000081525081526020016040518060400160405280600381526020017f536572000000000000000000000000000000000000000000000000000000000081525081526020016040518060400160405280600381526020017f536972000000000000000000000000000000000000000000000000000000000081525081526020016040518060400160405280600781526020017f5965726f6e65720000000000000000000000000000000000000000000000000081525081526020016040518060400160405280600681526020017f4d696c617264000000000000000000000000000000000000000000000000000081525081526020016040518060400160405280600681526020017f4d796c6177640000000000000000000000000000000000000000000000000000815250815250600c90600662000369929190620008c2565b506040518060c001604052806040518060400160405280600481526020017f546f6d650000000000000000000000000000000000000000000000000000000081525081526020016040518060400160405280600781526020017f4d7574617469730000000000000000000000000000000000000000000000000081525081526020016040518060400160405280600881526020017f4d7574616e64697300000000000000000000000000000000000000000000000081525081526020016040518060400160405280600b81526020017f5375692d47656e6572697300000000000000000000000000000000000000000081525081526020016040518060400160405280600a81526020017f4970736f2d466163746f0000000000000000000000000000000000000000000081525081526020016040518060400160405280600f81526020017f436574657269732d506172696275730000000000000000000000000000000000815250815250600d906006620004e7929190620008c2565b506040518060c001604052806040518060400160405280600581526020017f476176656c00000000000000000000000000000000000000000000000000000081525081526020016040518060400160405280600381526020017f576967000000000000000000000000000000000000000000000000000000000081525081526020016040518060400160405280600481526020017f526f62650000000000000000000000000000000000000000000000000000000081525081526020016040518060400160405280600981526020017f54696d657368656574000000000000000000000000000000000000000000000081525081526020016040518060400160405280600681526020017f427269656673000000000000000000000000000000000000000000000000000081525081526020016040518060400160405280600681526020017f446f636b65740000000000000000000000000000000000000000000000000000815250815250600e90600662000665929190620008c2565b503480156200067357600080fd5b506040518060400160405280600581526020017f7a704e46540000000000000000000000000000000000000000000000000000008152506040518060400160405280600681526020017f7a2d6e66747900000000000000000000000000000000000000000000000000008152508160009080519060200190620006f892919062000831565b5080600190805190602001906200071192919062000831565b5050506200075f6040518060400160405280601f81526020017f54686973206973206d79204e465420636f6e74726163742e204c6f72647921008152506200076560201b620012751760201c565b62000ae3565b62000805816040516024016200077c9190620009f7565b6040516020818303038152906040527f41304fac000000000000000000000000000000000000000000000000000000007bffffffffffffffffffffffffffffffffffffffffffffffffffffffff19166020820180517bffffffffffffffffffffffffffffffffffffffffffffffffffffffff83818316178352505050506200080860201b60201c565b50565b60008151905060006a636f6e736f6c652e6c6f679050602083016000808483855afa5050505050565b8280546200083f9062000a6d565b90600052602060002090601f016020900481019282620008635760008555620008af565b82601f106200087e57805160ff1916838001178555620008af565b82800160010185558215620008af579182015b82811115620008ae57825182559160200191906001019062000891565b5b509050620008be919062000929565b5090565b82805482825590600052602060002090810192821562000916579160200282015b82811115620009155782518290805190602001906200090492919062000831565b5091602001919060010190620008e3565b5b50905062000925919062000948565b5090565b5b80821115620009445760008160009055506001016200092a565b5090565b5b808211156200096c576000818162000962919062000970565b5060010162000949565b5090565b5080546200097e9062000a6d565b6000825580601f10620009925750620009b3565b601f016020900490600052602060002090810190620009b2919062000929565b5b50565b6000620009c38262000a1b565b620009cf818562000a26565b9350620009e181856020860162000a37565b620009ec8162000ad2565b840191505092915050565b6000602082019050818103600083015262000a138184620009b6565b905092915050565b600081519050919050565b600082825260208201905092915050565b60005b8381101562000a5757808201518184015260208101905062000a3a565b8381111562000a67576000848401525b50505050565b6000600282049050600182168062000a8657607f821691505b6020821081141562000a9d5762000a9c62000aa3565b5b50919050565b7f4e487b7100000000000000000000000000000000000000000000000000000000600052602260045260246000fd5b6000601f19601f8301169050919050565b613c0e8062000af36000396000f3fe608060405234801561001057600080fd5b50600436106101165760003560e01c80636352211e116100a2578063b187301f11610071578063b187301f146102f1578063b88d4fde14610321578063c575757a1461033d578063c87b56dd1461036d578063e985e9c51461039d57610116565b80636352211e1461025757806370a082311461028757806395d89b41146102b7578063a22cb465146102d557610116565b806323b872dd116100e957806323b872dd146101b55780632de38d68146101d157806342842e0e14610201578063514dc8c61461021d57806362b41f491461024d57610116565b806301ffc9a71461011b57806306fdde031461014b578063081812fc14610169578063095ea7b314610199575b600080fd5b61013560048036038101906101309190612717565b6103cd565b60405161014291906133c3565b60405180910390f35b6101536104af565b60405161016091906133de565b60405180910390f35b610183600480360381019061017e9190612769565b610541565b6040516101909190613325565b60405180910390f35b6101b360048036038101906101ae91906126db565b6105c6565b005b6101cf60048036038101906101ca91906125d5565b6106de565b005b6101eb60048036038101906101e69190612769565b61073e565b6040516101f891906133de565b60405180910390f35b61021b600480360381019061021691906125d5565b61085c565b005b61023760048036038101906102329190612769565b61087c565b60405161024491906133de565b60405180910390f35b61025561099a565b005b610271600480360381019061026c9190612769565b610bdf565b60405161027e9190613325565b60405180910390f35b6102a1600480360381019061029c9190612570565b610c91565b6040516102ae919061369f565b60405180910390f35b6102bf610d49565b6040516102cc91906133de565b60405180910390f35b6102ef60048036038101906102ea919061269f565b610ddb565b005b61030b60048036038101906103069190612769565b610df1565b60405161031891906133de565b60405180910390f35b61033b60048036038101906103369190612624565b610f0f565b005b61035760048036038101906103529190612769565b610f71565b60405161036491906133de565b60405180910390f35b61038760048036038101906103829190612769565b61108f565b60405161039491906133de565b60405180910390f35b6103b760048036038101906103b29190612599565b6111e1565b6040516103c491906133c3565b60405180910390f35b60007f80ac58cd000000000000000000000000000000000000000000000000000000007bffffffffffffffffffffffffffffffffffffffffffffffffffffffff1916827bffffffffffffffffffffffffffffffffffffffffffffffffffffffff1916148061049857507f5b5e139f000000000000000000000000000000000000000000000000000000007bffffffffffffffffffffffffffffffffffffffffffffffffffffffff1916827bffffffffffffffffffffffffffffffffffffffffffffffffffffffff1916145b806104a857506104a78261130e565b5b9050919050565b6060600080546104be9061393e565b80601f01602080910402602001604051908101604052809291908181526020018280546104ea9061393e565b80156105375780601f1061050c57610100808354040283529160200191610537565b820191906000526020600020905b81548152906001019060200180831161051a57829003601f168201915b5050505050905090565b600061054c82611378565b61058b576040517f08c379a0000000000000000000000000000000000000000000000000000000008152600401610582906135ff565b60405180910390fd5b6004600083815260200190815260200160002060009054906101000a900473ffffffffffffffffffffffffffffffffffffffff169050919050565b60006105d182610bdf565b90508073ffffffffffffffffffffffffffffffffffffffff168373ffffffffffffffffffffffffffffffffffffffff161415610642576040517f08c379a00000000000000000000000000000000000000000000000000000000081526004016106399061365f565b60405180910390fd5b8073ffffffffffffffffffffffffffffffffffffffff166106616113e4565b73ffffffffffffffffffffffffffffffffffffffff161480610690575061068f8161068a6113e4565b6111e1565b5b6106cf576040517f08c379a00000000000000000000000000000000000000000000000000000000081526004016106c69061353f565b60405180910390fd5b6106d983836113ec565b505050565b6106ef6106e96113e4565b826114a5565b61072e576040517f08c379a00000000000000000000000000000000000000000000000000000000081526004016107259061367f565b60405180910390fd5b610739838383611583565b505050565b6060600061077261074e846117df565b60405160200161075e91906132e1565b60405160208183030381529060405261198c565b9050600c805490508161078591906139b9565b9050600c81815481106107c1577f4e487b7100000000000000000000000000000000000000000000000000000000600052603260045260246000fd5b9060005260206000200180546107d69061393e565b80601f01602080910402602001604051908101604052809291908181526020018280546108029061393e565b801561084f5780601f106108245761010080835404028352916020019161084f565b820191906000526020600020905b81548152906001019060200180831161083257829003601f168201915b5050505050915050919050565b61087783838360405180602001604052806000815250610f0f565b505050565b606060006108b061088c846117df565b60405160200161089c9190613236565b60405160208183030381529060405261198c565b9050600b80549050816108c391906139b9565b9050600b81815481106108ff577f4e487b7100000000000000000000000000000000000000000000000000000000600052603260045260246000fd5b9060005260206000200180546109149061393e565b80601f01602080910402602001604051908101604052809291908181526020018280546109409061393e565b801561098d5780601f106109625761010080835404028352916020019161098d565b820191906000526020600020905b81548152906001019060200180831161097057829003601f168201915b5050505050915050919050565b60006109a660076119bf565b9050603281106109b557600080fd5b60006109c08261073e565b905060006109cd83610df1565b905060006109da84610f71565b905060008383836040516020016109f3939291906131bc565b60405160208183030381529060405290506000610a0f8661087c565b90506000600982600a85604051602001610a2c94939291906131ed565b60405160208183030381529060405290506000610a7184610a4c846119cd565b604051602001610a5d92919061329c565b6040516020818303038152906040526119cd565b9050610a7d3389611b8b565b600081604051602001610a909190613303565b6040516020818303038152906040529050610adf6040518060400160405280601581526020017f0a2d2d2d2d2d2d2d2d2d2d2d2d2d2d2d2d2d2d2d2d0000000000000000000000815250611275565b610ae881611275565b610b266040518060400160405280601581526020017f2d2d2d2d2d2d2d2d2d2d2d2d2d2d2d2d2d2d2d2d0a0000000000000000000000815250611275565b610b308982611ba9565b610b536040518060600160405280602e8152602001613bab602e91398a33611c1d565b610b5d6007611cbc565b610b97604051806080016040528060578152602001613b5460579139610b816104af565b610b89610d49565b610b928d61108f565b611cd2565b7f9e9e101732de0887d722bd72c01c5439edc857c9c2c763953d67e66de12441d3338a600854604051610bcc9392919061338c565b60405180910390a1505050505050505050565b6000806002600084815260200190815260200160002060009054906101000a900473ffffffffffffffffffffffffffffffffffffffff169050600073ffffffffffffffffffffffffffffffffffffffff168173ffffffffffffffffffffffffffffffffffffffff161415610c88576040517f08c379a0000000000000000000000000000000000000000000000000000000008152600401610c7f9061357f565b60405180910390fd5b80915050919050565b60008073ffffffffffffffffffffffffffffffffffffffff168273ffffffffffffffffffffffffffffffffffffffff161415610d02576040517f08c379a0000000000000000000000000000000000000000000000000000000008152600401610cf99061355f565b60405180910390fd5b600360008373ffffffffffffffffffffffffffffffffffffffff1673ffffffffffffffffffffffffffffffffffffffff168152602001908152602001600020549050919050565b606060018054610d589061393e565b80601f0160208091040260200160405190810160405280929190818152602001828054610d849061393e565b8015610dd15780601f10610da657610100808354040283529160200191610dd1565b820191906000526020600020905b815481529060010190602001808311610db457829003601f168201915b5050505050905090565b610ded610de66113e4565b8383611d74565b5050565b60606000610e25610e01846117df565b604051602001610e11919061327a565b60405160208183030381529060405261198c565b9050600d8054905081610e3891906139b9565b9050600d8181548110610e74577f4e487b7100000000000000000000000000000000000000000000000000000000600052603260045260246000fd5b906000526020600020018054610e899061393e565b80601f0160208091040260200160405190810160405280929190818152602001828054610eb59061393e565b8015610f025780601f10610ed757610100808354040283529160200191610f02565b820191906000526020600020905b815481529060010190602001808311610ee557829003601f168201915b5050505050915050919050565b610f20610f1a6113e4565b836114a5565b610f5f576040517f08c379a0000000000000000000000000000000000000000000000000000000008152600401610f569061367f565b60405180910390fd5b610f6b84848484611ee1565b50505050565b60606000610fa5610f81846117df565b604051602001610f919190613258565b60405160208183030381529060405261198c565b9050600e8054905081610fb891906139b9565b9050600e8181548110610ff4577f4e487b7100000000000000000000000000000000000000000000000000000000600052603260045260246000fd5b9060005260206000200180546110099061393e565b80601f01602080910402602001604051908101604052809291908181526020018280546110359061393e565b80156110825780601f1061105757610100808354040283529160200191611082565b820191906000526020600020905b81548152906001019060200180831161106557829003601f168201915b5050505050915050919050565b606061109a82611378565b6110d9576040517f08c379a00000000000000000000000000000000000000000000000000000000081526004016110d0906135df565b60405180910390fd5b60006006600084815260200190815260200160002080546110f99061393e565b80601f01602080910402602001604051908101604052809291908181526020018280546111259061393e565b80156111725780601f1061114757610100808354040283529160200191611172565b820191906000526020600020905b81548152906001019060200180831161115557829003601f168201915b505050505090506000611183611f3d565b90506000815114156111995781925050506111dc565b6000825111156111ce5780826040516020016111b6929190613198565b604051602081830303815290604052925050506111dc565b6111d784611f54565b925050505b919050565b6000600560008473ffffffffffffffffffffffffffffffffffffffff1673ffffffffffffffffffffffffffffffffffffffff16815260200190815260200160002060008373ffffffffffffffffffffffffffffffffffffffff1673ffffffffffffffffffffffffffffffffffffffff16815260200190815260200160002060009054906101000a900460ff16905092915050565b61130b8160405160240161128991906133de565b6040516020818303038152906040527f41304fac000000000000000000000000000000000000000000000000000000007bffffffffffffffffffffffffffffffffffffffffffffffffffffffff19166020820180517bffffffffffffffffffffffffffffffffffffffffffffffffffffffff8381831617835250505050611ffb565b50565b60007f01ffc9a7000000000000000000000000000000000000000000000000000000007bffffffffffffffffffffffffffffffffffffffffffffffffffffffff1916827bffffffffffffffffffffffffffffffffffffffffffffffffffffffff1916149050919050565b60008073ffffffffffffffffffffffffffffffffffffffff166002600084815260200190815260200160002060009054906101000a900473ffffffffffffffffffffffffffffffffffffffff1673ffffffffffffffffffffffffffffffffffffffff1614159050919050565b600033905090565b816004600083815260200190815260200160002060006101000a81548173ffffffffffffffffffffffffffffffffffffffff021916908373ffffffffffffffffffffffffffffffffffffffff160217905550808273ffffffffffffffffffffffffffffffffffffffff1661145f83610bdf565b73ffffffffffffffffffffffffffffffffffffffff167f8c5be1e5ebec7d5bd14f71427d1e84f3dd0314c0f7b2291e5b200ac8c7c3b92560405160405180910390a45050565b60006114b082611378565b6114ef576040517f08c379a00000000000000000000000000000000000000000000000000000000081526004016114e69061351f565b60405180910390fd5b60006114fa83610bdf565b90508073ffffffffffffffffffffffffffffffffffffffff168473ffffffffffffffffffffffffffffffffffffffff16148061156957508373ffffffffffffffffffffffffffffffffffffffff1661155184610541565b73ffffffffffffffffffffffffffffffffffffffff16145b8061157a575061157981856111e1565b5b91505092915050565b8273ffffffffffffffffffffffffffffffffffffffff166115a382610bdf565b73ffffffffffffffffffffffffffffffffffffffff16146115f9576040517f08c379a00000000000000000000000000000000000000000000000000000000081526004016115f09061361f565b60405180910390fd5b600073ffffffffffffffffffffffffffffffffffffffff168273ffffffffffffffffffffffffffffffffffffffff161415611669576040517f08c379a0000000000000000000000000000000000000000000000000000000008152600401611660906134df565b60405180910390fd5b611674838383612024565b61167f6000826113ec565b6001600360008573ffffffffffffffffffffffffffffffffffffffff1673ffffffffffffffffffffffffffffffffffffffff16815260200190815260200160002060008282546116cf9190613854565b925050819055506001600360008473ffffffffffffffffffffffffffffffffffffffff1673ffffffffffffffffffffffffffffffffffffffff16815260200190815260200160002060008282546117269190613773565b92505081905550816002600083815260200190815260200160002060006101000a81548173ffffffffffffffffffffffffffffffffffffffff021916908373ffffffffffffffffffffffffffffffffffffffff160217905550808273ffffffffffffffffffffffffffffffffffffffff168473ffffffffffffffffffffffffffffffffffffffff167fddf252ad1be2c89b69c2b068fc378daa952ba7f163c4a11628f55a4df523b3ef60405160405180910390a4505050565b60606000821415611827576040518060400160405280600181526020017f30000000000000000000000000000000000000000000000000000000000000008152509050611987565b600082905060005b6000821461185957808061184290613970565b915050600a8261185291906137c9565b915061182f565b60008167ffffffffffffffff81111561189b577f4e487b7100000000000000000000000000000000000000000000000000000000600052604160045260246000fd5b6040519080825280601f01601f1916602001820160405280156118cd5781602001600182028036833780820191505090505b5090505b60008514611980576001826118e69190613854565b9150600a856118f591906139b9565b60306119019190613773565b60f81b81838151811061193d577f4e487b7100000000000000000000000000000000000000000000000000000000600052603260045260246000fd5b60200101907effffffffffffffffffffffffffffffffffffffffffffffffffffffffffffff1916908160001a905350600a8561197991906137c9565b94506118d1565b8093505050505b919050565b60008160405160200161199f9190613181565b6040516020818303038152906040528051906020012060001c9050919050565b600081600001549050919050565b606060008251905060008114156119f65760405180602001604052806000815250915050611b86565b60006003600283611a079190613773565b611a1191906137c9565b6004611a1d91906137fa565b90506000602082611a2e9190613773565b67ffffffffffffffff811115611a6d577f4e487b7100000000000000000000000000000000000000000000000000000000600052604160045260246000fd5b6040519080825280601f01601f191660200182016040528015611a9f5781602001600182028036833780820191505090505b5090506000604051806060016040528060408152602001613b14604091399050600181016020830160005b86811015611b435760038101905062ffffff818a015116603f8160121c168401518060081b905060ff603f83600c1c1686015116810190508060081b905060ff603f8360061c1686015116810190508060081b905060ff603f831686015116810190508060e01b90508084526004840193505050611aca565b506003860660018114611b5d5760028114611b6d57611b78565b613d3d60f01b6002830352611b78565b603d60f81b60018303525b508484525050819450505050505b919050565b611ba5828260405180602001604052806000815250612029565b5050565b611bb282611378565b611bf1576040517f08c379a0000000000000000000000000000000000000000000000000000000008152600401611be89061359f565b60405180910390fd5b80600660008481526020019081526020016000209080519060200190611c189291906123fc565b505050565b611cb7838383604051602401611c3593929190613461565b6040516020818303038152906040527fe3849f79000000000000000000000000000000000000000000000000000000007bffffffffffffffffffffffffffffffffffffffffffffffffffffffff19166020820180517bffffffffffffffffffffffffffffffffffffffffffffffffffffffff8381831617835250505050611ffb565b505050565b6001816000016000828254019250508190555050565b611d6e84848484604051602401611cec9493929190613400565b6040516020818303038152906040527fde68f20a000000000000000000000000000000000000000000000000000000007bffffffffffffffffffffffffffffffffffffffffffffffffffffffff19166020820180517bffffffffffffffffffffffffffffffffffffffffffffffffffffffff8381831617835250505050611ffb565b50505050565b8173ffffffffffffffffffffffffffffffffffffffff168373ffffffffffffffffffffffffffffffffffffffff161415611de3576040517f08c379a0000000000000000000000000000000000000000000000000000000008152600401611dda906134ff565b60405180910390fd5b80600560008573ffffffffffffffffffffffffffffffffffffffff1673ffffffffffffffffffffffffffffffffffffffff16815260200190815260200160002060008473ffffffffffffffffffffffffffffffffffffffff1673ffffffffffffffffffffffffffffffffffffffff16815260200190815260200160002060006101000a81548160ff0219169083151502179055508173ffffffffffffffffffffffffffffffffffffffff168373ffffffffffffffffffffffffffffffffffffffff167f17307eab39ab6107e8899845ad3d59bd9653f200f220920489ca2b5937696c3183604051611ed491906133c3565b60405180910390a3505050565b611eec848484611583565b611ef884848484612084565b611f37576040517f08c379a0000000000000000000000000000000000000000000000000000000008152600401611f2e9061349f565b60405180910390fd5b50505050565b606060405180602001604052806000815250905090565b6060611f5f82611378565b611f9e576040517f08c379a0000000000000000000000000000000000000000000000000000000008152600401611f959061363f565b60405180910390fd5b6000611fa8611f3d565b90506000815111611fc85760405180602001604052806000815250611ff3565b80611fd2846117df565b604051602001611fe3929190613198565b6040516020818303038152906040525b915050919050565b60008151905060006a636f6e736f6c652e6c6f679050602083016000808483855afa5050505050565b505050565b612033838361221b565b6120406000848484612084565b61207f576040517f08c379a00000000000000000000000000000000000000000000000000000000081526004016120769061349f565b60405180910390fd5b505050565b60006120a58473ffffffffffffffffffffffffffffffffffffffff166123e9565b1561220e578373ffffffffffffffffffffffffffffffffffffffff1663150b7a026120ce6113e4565b8786866040518563ffffffff1660e01b81526004016120f09493929190613340565b602060405180830381600087803b15801561210a57600080fd5b505af192505050801561213b57506040513d601f19601f820116820180604052508101906121389190612740565b60015b6121be573d806000811461216b576040519150601f19603f3d011682016040523d82523d6000602084013e612170565b606091505b506000815114156121b6576040517f08c379a00000000000000000000000000000000000000000000000000000000081526004016121ad9061349f565b60405180910390fd5b805181602001fd5b63150b7a0260e01b7bffffffffffffffffffffffffffffffffffffffffffffffffffffffff1916817bffffffffffffffffffffffffffffffffffffffffffffffffffffffff191614915050612213565b600190505b949350505050565b600073ffffffffffffffffffffffffffffffffffffffff168273ffffffffffffffffffffffffffffffffffffffff16141561228b576040517f08c379a0000000000000000000000000000000000000000000000000000000008152600401612282906135bf565b60405180910390fd5b61229481611378565b156122d4576040517f08c379a00000000000000000000000000000000000000000000000000000000081526004016122cb906134bf565b60405180910390fd5b6122e060008383612024565b6001600360008473ffffffffffffffffffffffffffffffffffffffff1673ffffffffffffffffffffffffffffffffffffffff16815260200190815260200160002060008282546123309190613773565b92505081905550816002600083815260200190815260200160002060006101000a81548173ffffffffffffffffffffffffffffffffffffffff021916908373ffffffffffffffffffffffffffffffffffffffff160217905550808273ffffffffffffffffffffffffffffffffffffffff16600073ffffffffffffffffffffffffffffffffffffffff167fddf252ad1be2c89b69c2b068fc378daa952ba7f163c4a11628f55a4df523b3ef60405160405180910390a45050565b600080823b905060008111915050919050565b8280546124089061393e565b90600052602060002090601f01602090048101928261242a5760008555612471565b82601f1061244357805160ff1916838001178555612471565b82800160010185558215612471579182015b82811115612470578251825591602001919060010190612455565b5b50905061247e9190612482565b5090565b5b8082111561249b576000816000905550600101612483565b5090565b60006124b26124ad846136eb565b6136ba565b9050828152602081018484840111156124ca57600080fd5b6124d58482856138fc565b509392505050565b6000813590506124ec81613ab7565b92915050565b60008135905061250181613ace565b92915050565b60008135905061251681613ae5565b92915050565b60008151905061252b81613ae5565b92915050565b600082601f83011261254257600080fd5b813561255284826020860161249f565b91505092915050565b60008135905061256a81613afc565b92915050565b60006020828403121561258257600080fd5b6000612590848285016124dd565b91505092915050565b600080604083850312156125ac57600080fd5b60006125ba858286016124dd565b92505060206125cb858286016124dd565b9150509250929050565b6000806000606084860312156125ea57600080fd5b60006125f8868287016124dd565b9350506020612609868287016124dd565b925050604061261a8682870161255b565b9150509250925092565b6000806000806080858703121561263a57600080fd5b6000612648878288016124dd565b9450506020612659878288016124dd565b935050604061266a8782880161255b565b925050606085013567ffffffffffffffff81111561268757600080fd5b61269387828801612531565b91505092959194509250565b600080604083850312156126b257600080fd5b60006126c0858286016124dd565b92505060206126d1858286016124f2565b9150509250929050565b600080604083850312156126ee57600080fd5b60006126fc858286016124dd565b925050602061270d8582860161255b565b9150509250929050565b60006020828403121561272957600080fd5b600061273784828501612507565b91505092915050565b60006020828403121561275257600080fd5b60006127608482850161251c565b91505092915050565b60006020828403121561277b57600080fd5b60006127898482850161255b565b91505092915050565b61279b81613888565b82525050565b6127aa8161389a565b82525050565b60006127bb82613730565b6127c58185613746565b93506127d581856020860161390b565b6127de81613aa6565b840191505092915050565b60006127f48261373b565b6127fe8185613757565b935061280e81856020860161390b565b61281781613aa6565b840191505092915050565b600061282d8261373b565b6128378185613768565b935061284781856020860161390b565b80840191505092915050565b600081546128608161393e565b61286a8186613768565b945060018216600081146128855760018114612896576128c9565b60ff198316865281860193506128c9565b61289f8561371b565b60005b838110156128c1578154818901526001820191506020810190506128a2565b838801955050505b50505092915050565b60006128df600c83613768565b91507f52414e444f4d20434f4c4f5200000000000000000000000000000000000000006000830152600c82019050919050565b600061291f603283613757565b91507f4552433732313a207472616e7366657220746f206e6f6e20455243373231526560008301527f63656976657220696d706c656d656e74657200000000000000000000000000006020830152604082019050919050565b6000612985601c83613757565b91507f4552433732313a20746f6b656e20616c7265616479206d696e746564000000006000830152602082019050919050565b60006129c5606683613768565b91507f222c20226465736372697074696f6e223a20224120686967686c79206163636c60008301527f61696d656420636f6c6c656374696f6e206f66204c6567616c204e4654732e2260208301527f2c2022696d616765223a2022646174613a696d6167652f7376672b786d6c3b6260408301527f61736536342c00000000000000000000000000000000000000000000000000006060830152606682019050919050565b6000612a77600a83613768565b91507f54484952445f574f5244000000000000000000000000000000000000000000006000830152600a82019050919050565b6000612ab7602483613757565b91507f4552433732313a207472616e7366657220746f20746865207a65726f2061646460008301527f72657373000000000000000000000000000000000000000000000000000000006020830152604082019050919050565b6000612b1d601983613757565b91507f4552433732313a20617070726f766520746f2063616c6c6572000000000000006000830152602082019050919050565b6000612b5d600b83613768565b91507f5345434f4e445f574f52440000000000000000000000000000000000000000006000830152600b82019050919050565b6000612b9d602c83613757565b91507f4552433732313a206f70657261746f7220717565727920666f72206e6f6e657860008301527f697374656e7420746f6b656e00000000000000000000000000000000000000006020830152604082019050919050565b6000612c03600d83613768565b91507f3c2f746578743e3c2f7376673e000000000000000000000000000000000000006000830152600d82019050919050565b6000612c43603883613757565b91507f4552433732313a20617070726f76652063616c6c6572206973206e6f74206f7760008301527f6e6572206e6f7220617070726f76656420666f7220616c6c00000000000000006020830152604082019050919050565b6000612ca9602a83613757565b91507f4552433732313a2062616c616e636520717565727920666f7220746865207a6560008301527f726f2061646472657373000000000000000000000000000000000000000000006020830152604082019050919050565b6000612d0f602983613757565b91507f4552433732313a206f776e657220717565727920666f72206e6f6e657869737460008301527f656e7420746f6b656e00000000000000000000000000000000000000000000006020830152604082019050919050565b6000612d75602e83613757565b91507f45524337323155524953746f726167653a2055524920736574206f66206e6f6e60008301527f6578697374656e7420746f6b656e0000000000000000000000000000000000006020830152604082019050919050565b6000612ddb600283613768565b91507f227d0000000000000000000000000000000000000000000000000000000000006000830152600282019050919050565b6000612e1b602083613757565b91507f4552433732313a206d696e7420746f20746865207a65726f20616464726573736000830152602082019050919050565b6000612e5b603183613757565b91507f45524337323155524953746f726167653a2055524920717565727920666f722060008301527f6e6f6e6578697374656e7420746f6b656e0000000000000000000000000000006020830152604082019050919050565b6000612ec1602c83613757565b91507f4552433732313a20617070726f76656420717565727920666f72206e6f6e657860008301527f697374656e7420746f6b656e00000000000000000000000000000000000000006020830152604082019050919050565b6000612f27602983613757565b91507f4552433732313a207472616e73666572206f6620746f6b656e2074686174206960008301527f73206e6f74206f776e00000000000000000000000000000000000000000000006020830152604082019050919050565b6000612f8d602f83613757565b91507f4552433732314d657461646174613a2055524920717565727920666f72206e6f60008301527f6e6578697374656e7420746f6b656e00000000000000000000000000000000006020830152604082019050919050565b6000612ff3600a83613768565b91507f7b226e616d65223a2022000000000000000000000000000000000000000000006000830152600a82019050919050565b6000613033602183613757565b91507f4552433732313a20617070726f76616c20746f2063757272656e74206f776e6560008301527f72000000000000000000000000000000000000000000000000000000000000006020830152604082019050919050565b6000613099600a83613768565b91507f46495253545f574f5244000000000000000000000000000000000000000000006000830152600a82019050919050565b60006130d9601d83613768565b91507f646174613a6170706c69636174696f6e2f6a736f6e3b6261736536342c0000006000830152601d82019050919050565b6000613119603183613757565b91507f4552433732313a207472616e736665722063616c6c6572206973206e6f74206f60008301527f776e6572206e6f7220617070726f7665640000000000000000000000000000006020830152604082019050919050565b61317b816138f2565b82525050565b600061318d8284612822565b915081905092915050565b60006131a48285612822565b91506131b08284612822565b91508190509392505050565b60006131c88286612822565b91506131d48285612822565b91506131e08284612822565b9150819050949350505050565b60006131f98287612853565b91506132058286612822565b91506132118285612853565b915061321d8284612822565b915061322882612bf6565b915081905095945050505050565b6000613241826128d2565b915061324d8284612822565b915081905092915050565b600061326382612a6a565b915061326f8284612822565b915081905092915050565b600061328582612b50565b91506132918284612822565b915081905092915050565b60006132a782612fe6565b91506132b38285612822565b91506132be826129b8565b91506132ca8284612822565b91506132d582612dce565b91508190509392505050565b60006132ec8261308c565b91506132f88284612822565b915081905092915050565b600061330e826130cc565b915061331a8284612822565b915081905092915050565b600060208201905061333a6000830184612792565b92915050565b60006080820190506133556000830187612792565b6133626020830186612792565b61336f6040830185613172565b818103606083015261338181846127b0565b905095945050505050565b60006060820190506133a16000830186612792565b6133ae6020830185613172565b6133bb6040830184613172565b949350505050565b60006020820190506133d860008301846127a1565b92915050565b600060208201905081810360008301526133f881846127e9565b905092915050565b6000608082019050818103600083015261341a81876127e9565b9050818103602083015261342e81866127e9565b9050818103604083015261344281856127e9565b9050818103606083015261345681846127e9565b905095945050505050565b6000606082019050818103600083015261347b81866127e9565b905061348a6020830185613172565b6134976040830184612792565b949350505050565b600060208201905081810360008301526134b881612912565b9050919050565b600060208201905081810360008301526134d881612978565b9050919050565b600060208201905081810360008301526134f881612aaa565b9050919050565b6000602082019050818103600083015261351881612b10565b9050919050565b6000602082019050818103600083015261353881612b90565b9050919050565b6000602082019050818103600083015261355881612c36565b9050919050565b6000602082019050818103600083015261357881612c9c565b9050919050565b6000602082019050818103600083015261359881612d02565b9050919050565b600060208201905081810360008301526135b881612d68565b9050919050565b600060208201905081810360008301526135d881612e0e565b9050919050565b600060208201905081810360008301526135f881612e4e565b9050919050565b6000602082019050818103600083015261361881612eb4565b9050919050565b6000602082019050818103600083015261363881612f1a565b9050919050565b6000602082019050818103600083015261365881612f80565b9050919050565b6000602082019050818103600083015261367881613026565b9050919050565b600060208201905081810360008301526136988161310c565b9050919050565b60006020820190506136b46000830184613172565b92915050565b6000604051905081810181811067ffffffffffffffff821117156136e1576136e0613a77565b5b8060405250919050565b600067ffffffffffffffff82111561370657613705613a77565b5b601f19601f8301169050602081019050919050565b60008190508160005260206000209050919050565b600081519050919050565b600081519050919050565b600082825260208201905092915050565b600082825260208201905092915050565b600081905092915050565b600061377e826138f2565b9150613789836138f2565b9250827fffffffffffffffffffffffffffffffffffffffffffffffffffffffffffffffff038211156137be576137bd6139ea565b5b828201905092915050565b60006137d4826138f2565b91506137df836138f2565b9250826137ef576137ee613a19565b5b828204905092915050565b6000613805826138f2565b9150613810836138f2565b9250817fffffffffffffffffffffffffffffffffffffffffffffffffffffffffffffffff0483118215151615613849576138486139ea565b5b828202905092915050565b600061385f826138f2565b915061386a836138f2565b92508282101561387d5761387c6139ea565b5b828203905092915050565b6000613893826138d2565b9050919050565b60008115159050919050565b60007fffffffff0000000000000000000000000000000000000000000000000000000082169050919050565b600073ffffffffffffffffffffffffffffffffffffffff82169050919050565b6000819050919050565b82818337600083830152505050565b60005b8381101561392957808201518184015260208101905061390e565b83811115613938576000848401525b50505050565b6000600282049050600182168061395657607f821691505b6020821081141561396a57613969613a48565b5b50919050565b600061397b826138f2565b91507fffffffffffffffffffffffffffffffffffffffffffffffffffffffffffffffff8214156139ae576139ad6139ea565b5b600182019050919050565b60006139c4826138f2565b91506139cf836138f2565b9250826139df576139de613a19565b5b828206905092915050565b7f4e487b7100000000000000000000000000000000000000000000000000000000600052601160045260246000fd5b7f4e487b7100000000000000000000000000000000000000000000000000000000600052601260045260246000fd5b7f4e487b7100000000000000000000000000000000000000000000000000000000600052602260045260246000fd5b7f4e487b7100000000000000000000000000000000000000000000000000000000600052604160045260246000fd5b6000601f19601f8301169050919050565b613ac081613888565b8114613acb57600080fd5b50565b613ad78161389a565b8114613ae257600080fd5b50565b613aee816138a6565b8114613af957600080fd5b50565b613b05816138f2565b8114613b1057600080fd5b5056fe4142434445464748494a4b4c4d4e4f505152535455565758595a6162636465666768696a6b6c6d6e6f707172737475767778797a303132333435363738392b2f54686520546f6b656e2773206e616d65206973202725732720616e64206974732073796d626f6c20697320272573272e204974732055524920646174612069732025732e20546f74616c20537570706c7920697320257341204e4654207769746820696420256420686173206265656e206d696e74656420666f722073656e646572202573a26469706673582212200820aedee6db2604b948aa428b725c582e4c9b542ae44887ddbfcc31abed8c3564736f6c634300080000333c73766720786d6c6e733d27687474703a2f2f7777772e77332e6f72672f323030302f73766727207072657365727665417370656374526174696f3d27784d696e594d696e206d656574272076696577426f783d273020302033353020333530273e3c7374796c653e2e62617365207b2066696c6c3a2077686974653b20666f6e742d66616d696c793a2073657269663b20666f6e742d73697a653a20323470783b207d3c2f7374796c653e3c726563742077696474683d273130302527206865696768743d2731303025272066696c6c3d27272f3e3c7465787420783d273530252720793d273530252720636c6173733d27626173652720646f6d696e616e742d626173656c696e653d276d6964646c652720746578742d616e63686f723d276d6964646c65273e",
  "linkReferences": {},
  "deployedLinkReferences": {}
}